{
  "_format": "hh-sol-artifact-1",
  "contractName": "GovernanceToken",
  "sourceName": "contracts/gtDemo.sol",
  "abi": [
    {
      "inputs": [
        {
          "internalType": "string",
          "name": "name",
          "type": "string"
        },
        {
          "internalType": "string",
          "name": "symbol",
          "type": "string"
        },
        {
          "internalType": "address",
          "name": "councilAddress",
          "type": "address"
        },
        {
          "internalType": "uint8",
          "name": "decimals_",
          "type": "uint8"
        },
        {
          "components": [
            {
              "internalType": "bool",
              "name": "canMint",
              "type": "bool"
            },
            {
              "internalType": "bool",
              "name": "canBurn",
              "type": "bool"
            },
            {
              "internalType": "bool",
              "name": "canPause",
              "type": "bool"
            },
            {
              "internalType": "bool",
              "name": "canStake",
              "type": "bool"
            },
            {
              "internalType": "bool",
              "name": "canTransfer",
              "type": "bool"
            },
            {
              "internalType": "bool",
              "name": "canChangeOwner",
              "type": "bool"
            }
          ],
          "internalType": "struct GovernanceToken.smartContractActions",
          "name": "_actions",
          "type": "tuple"
        }
      ],
      "stateMutability": "nonpayable",
      "type": "constructor"
    },
    {
      "inputs": [],
      "name": "AccessControlBadConfirmation",
      "type": "error"
    },
    {
      "inputs": [
        {
          "internalType": "address",
          "name": "account",
          "type": "address"
        },
        {
          "internalType": "bytes32",
          "name": "neededRole",
          "type": "bytes32"
        }
      ],
      "name": "AccessControlUnauthorizedAccount",
      "type": "error"
    },
    {
      "inputs": [],
      "name": "CheckpointUnorderedInsertion",
      "type": "error"
    },
    {
      "inputs": [],
      "name": "ECDSAInvalidSignature",
      "type": "error"
    },
    {
      "inputs": [
        {
          "internalType": "uint256",
          "name": "length",
          "type": "uint256"
        }
      ],
      "name": "ECDSAInvalidSignatureLength",
      "type": "error"
    },
    {
      "inputs": [
        {
          "internalType": "bytes32",
          "name": "s",
          "type": "bytes32"
        }
      ],
      "name": "ECDSAInvalidSignatureS",
      "type": "error"
    },
    {
      "inputs": [
        {
          "internalType": "uint256",
          "name": "increasedSupply",
          "type": "uint256"
        },
        {
          "internalType": "uint256",
          "name": "cap",
          "type": "uint256"
        }
      ],
      "name": "ERC20ExceededSafeSupply",
      "type": "error"
    },
    {
      "inputs": [
        {
          "internalType": "address",
          "name": "spender",
          "type": "address"
        },
        {
          "internalType": "uint256",
          "name": "allowance",
          "type": "uint256"
        },
        {
          "internalType": "uint256",
          "name": "needed",
          "type": "uint256"
        }
      ],
      "name": "ERC20InsufficientAllowance",
      "type": "error"
    },
    {
      "inputs": [
        {
          "internalType": "address",
          "name": "sender",
          "type": "address"
        },
        {
          "internalType": "uint256",
          "name": "balance",
          "type": "uint256"
        },
        {
          "internalType": "uint256",
          "name": "needed",
          "type": "uint256"
        }
      ],
      "name": "ERC20InsufficientBalance",
      "type": "error"
    },
    {
      "inputs": [
        {
          "internalType": "address",
          "name": "approver",
          "type": "address"
        }
      ],
      "name": "ERC20InvalidApprover",
      "type": "error"
    },
    {
      "inputs": [
        {
          "internalType": "address",
          "name": "receiver",
          "type": "address"
        }
      ],
      "name": "ERC20InvalidReceiver",
      "type": "error"
    },
    {
      "inputs": [
        {
          "internalType": "address",
          "name": "sender",
          "type": "address"
        }
      ],
      "name": "ERC20InvalidSender",
      "type": "error"
    },
    {
      "inputs": [
        {
          "internalType": "address",
          "name": "spender",
          "type": "address"
        }
      ],
      "name": "ERC20InvalidSpender",
      "type": "error"
    },
    {
      "inputs": [
        {
          "internalType": "uint256",
          "name": "deadline",
          "type": "uint256"
        }
      ],
      "name": "ERC2612ExpiredSignature",
      "type": "error"
    },
    {
      "inputs": [
        {
          "internalType": "address",
          "name": "signer",
          "type": "address"
        },
        {
          "internalType": "address",
          "name": "owner",
          "type": "address"
        }
      ],
      "name": "ERC2612InvalidSigner",
      "type": "error"
    },
    {
      "inputs": [
        {
          "internalType": "uint256",
          "name": "timepoint",
          "type": "uint256"
        },
        {
          "internalType": "uint48",
          "name": "clock",
          "type": "uint48"
        }
      ],
      "name": "ERC5805FutureLookup",
      "type": "error"
    },
    {
      "inputs": [],
      "name": "ERC6372InconsistentClock",
      "type": "error"
    },
    {
      "inputs": [],
      "name": "EnforcedPause",
      "type": "error"
    },
    {
      "inputs": [],
      "name": "ExpectedPause",
      "type": "error"
    },
    {
      "inputs": [],
      "name": "GovernanceERC20BurnNotEnabled",
      "type": "error"
    },
    {
      "inputs": [],
      "name": "GovernanceERC20ChangeOwnerNotEnabled",
      "type": "error"
    },
    {
      "inputs": [],
      "name": "GovernanceERC20IdNotFound",
      "type": "error"
    },
    {
      "inputs": [],
      "name": "GovernanceERC20InsufficientBalance",
      "type": "error"
    },
    {
      "inputs": [],
      "name": "GovernanceERC20MintNotEnabled",
      "type": "error"
    },
    {
      "inputs": [],
      "name": "GovernanceERC20NotADaoInteraction",
      "type": "error"
    },
    {
      "inputs": [],
      "name": "GovernanceERC20PauseNotEnabled",
      "type": "error"
    },
    {
      "inputs": [],
      "name": "GovernanceERC20StakeNotEnabled",
      "type": "error"
    },
    {
      "inputs": [],
      "name": "GovernanceERC20TransferNotEnabled",
      "type": "error"
    },
    {
      "inputs": [],
      "name": "GovernanceERC20ZeroAddressFound",
      "type": "error"
    },
    {
      "inputs": [],
      "name": "GovernanceERC20ZeroAmount",
      "type": "error"
    },
    {
      "inputs": [],
      "name": "GovernanceERC20unAuthorizedRole",
      "type": "error"
    },
    {
      "inputs": [
        {
          "internalType": "address",
          "name": "account",
          "type": "address"
        },
        {
          "internalType": "uint256",
          "name": "currentNonce",
          "type": "uint256"
        }
      ],
      "name": "InvalidAccountNonce",
      "type": "error"
    },
    {
      "inputs": [],
      "name": "InvalidShortString",
      "type": "error"
    },
    {
      "inputs": [
        {
          "internalType": "address",
          "name": "owner",
          "type": "address"
        }
      ],
      "name": "OwnableInvalidOwner",
      "type": "error"
    },
    {
      "inputs": [
        {
          "internalType": "address",
          "name": "account",
          "type": "address"
        }
      ],
      "name": "OwnableUnauthorizedAccount",
      "type": "error"
    },
    {
      "inputs": [],
      "name": "ReentrancyGuardReentrantCall",
      "type": "error"
    },
    {
      "inputs": [
        {
          "internalType": "uint8",
          "name": "bits",
          "type": "uint8"
        },
        {
          "internalType": "uint256",
          "name": "value",
          "type": "uint256"
        }
      ],
      "name": "SafeCastOverflowedUintDowncast",
      "type": "error"
    },
    {
      "inputs": [
        {
          "internalType": "string",
          "name": "str",
          "type": "string"
        }
      ],
      "name": "StringTooLong",
      "type": "error"
    },
    {
      "inputs": [
        {
          "internalType": "uint256",
          "name": "expiry",
          "type": "uint256"
        }
      ],
      "name": "VotesExpiredSignature",
      "type": "error"
    },
    {
      "anonymous": false,
      "inputs": [
        {
          "indexed": true,
          "internalType": "address",
          "name": "owner",
          "type": "address"
        },
        {
          "indexed": true,
          "internalType": "address",
          "name": "spender",
          "type": "address"
        },
        {
          "indexed": false,
          "internalType": "uint256",
          "name": "value",
          "type": "uint256"
        }
      ],
      "name": "Approval",
      "type": "event"
    },
    {
      "anonymous": false,
      "inputs": [
        {
          "indexed": true,
          "internalType": "address",
          "name": "delegator",
          "type": "address"
        },
        {
          "indexed": true,
          "internalType": "address",
          "name": "fromDelegate",
          "type": "address"
        },
        {
          "indexed": true,
          "internalType": "address",
          "name": "toDelegate",
          "type": "address"
        }
      ],
      "name": "DelegateChanged",
      "type": "event"
    },
    {
      "anonymous": false,
      "inputs": [
        {
          "indexed": true,
          "internalType": "address",
          "name": "delegate",
          "type": "address"
        },
        {
          "indexed": false,
          "internalType": "uint256",
          "name": "previousVotes",
          "type": "uint256"
        },
        {
          "indexed": false,
          "internalType": "uint256",
          "name": "newVotes",
          "type": "uint256"
        }
      ],
      "name": "DelegateVotesChanged",
      "type": "event"
    },
    {
      "anonymous": false,
      "inputs": [],
      "name": "EIP712DomainChanged",
      "type": "event"
    },
    {
      "anonymous": false,
      "inputs": [
        {
          "indexed": true,
          "internalType": "address",
          "name": "previousOwner",
          "type": "address"
        },
        {
          "indexed": true,
          "internalType": "address",
          "name": "newOwner",
          "type": "address"
        }
      ],
      "name": "OwnershipTransferred",
      "type": "event"
    },
    {
      "anonymous": false,
      "inputs": [
        {
          "indexed": false,
          "internalType": "address",
          "name": "account",
          "type": "address"
        }
      ],
      "name": "Paused",
      "type": "event"
    },
    {
      "anonymous": false,
      "inputs": [
        {
          "indexed": true,
          "internalType": "bytes32",
          "name": "role",
          "type": "bytes32"
        },
        {
          "indexed": true,
          "internalType": "bytes32",
          "name": "previousAdminRole",
          "type": "bytes32"
        },
        {
          "indexed": true,
          "internalType": "bytes32",
          "name": "newAdminRole",
          "type": "bytes32"
        }
      ],
      "name": "RoleAdminChanged",
      "type": "event"
    },
    {
      "anonymous": false,
      "inputs": [
        {
          "indexed": true,
          "internalType": "bytes32",
          "name": "role",
          "type": "bytes32"
        },
        {
          "indexed": true,
          "internalType": "address",
          "name": "account",
          "type": "address"
        },
        {
          "indexed": true,
          "internalType": "address",
          "name": "sender",
          "type": "address"
        }
      ],
      "name": "RoleGranted",
      "type": "event"
    },
    {
      "anonymous": false,
      "inputs": [
        {
          "indexed": true,
          "internalType": "bytes32",
          "name": "role",
          "type": "bytes32"
        },
        {
          "indexed": true,
          "internalType": "address",
          "name": "account",
          "type": "address"
        },
        {
          "indexed": true,
          "internalType": "address",
          "name": "sender",
          "type": "address"
        }
      ],
      "name": "RoleRevoked",
      "type": "event"
    },
    {
      "anonymous": false,
      "inputs": [
        {
          "indexed": true,
          "internalType": "address",
          "name": "from",
          "type": "address"
        },
        {
          "indexed": true,
          "internalType": "address",
          "name": "to",
          "type": "address"
        },
        {
          "indexed": false,
          "internalType": "uint256",
          "name": "value",
          "type": "uint256"
        }
      ],
      "name": "Transfer",
      "type": "event"
    },
    {
      "anonymous": false,
      "inputs": [
        {
          "indexed": false,
          "internalType": "address",
          "name": "account",
          "type": "address"
        }
      ],
      "name": "Unpaused",
      "type": "event"
    },
    {
      "inputs": [],
      "name": "CLOCK_MODE",
      "outputs": [
        {
          "internalType": "string",
          "name": "",
          "type": "string"
        }
      ],
      "stateMutability": "view",
      "type": "function"
    },
    {
      "inputs": [],
      "name": "DEFAULT_ADMIN_ROLE",
      "outputs": [
        {
          "internalType": "bytes32",
          "name": "",
          "type": "bytes32"
        }
      ],
      "stateMutability": "view",
      "type": "function"
    },
    {
      "inputs": [],
      "name": "DOMAIN_SEPARATOR",
      "outputs": [
        {
          "internalType": "bytes32",
          "name": "",
          "type": "bytes32"
        }
      ],
      "stateMutability": "view",
      "type": "function"
    },
    {
      "inputs": [],
      "name": "actions",
      "outputs": [
        {
          "internalType": "bool",
          "name": "canMint",
          "type": "bool"
        },
        {
          "internalType": "bool",
          "name": "canBurn",
          "type": "bool"
        },
        {
          "internalType": "bool",
          "name": "canPause",
          "type": "bool"
        },
        {
          "internalType": "bool",
          "name": "canStake",
          "type": "bool"
        },
        {
          "internalType": "bool",
          "name": "canTransfer",
          "type": "bool"
        },
        {
          "internalType": "bool",
          "name": "canChangeOwner",
          "type": "bool"
        }
      ],
      "stateMutability": "view",
      "type": "function"
    },
    {
      "inputs": [
        {
          "internalType": "address",
          "name": "owner",
          "type": "address"
        },
        {
          "internalType": "address",
          "name": "spender",
          "type": "address"
        }
      ],
      "name": "allowance",
      "outputs": [
        {
          "internalType": "uint256",
          "name": "",
          "type": "uint256"
        }
      ],
      "stateMutability": "view",
      "type": "function"
    },
    {
      "inputs": [
        {
          "internalType": "address",
          "name": "spender",
          "type": "address"
        },
        {
          "internalType": "uint256",
          "name": "value",
          "type": "uint256"
        }
      ],
      "name": "approve",
      "outputs": [
        {
          "internalType": "bool",
          "name": "",
          "type": "bool"
        }
      ],
      "stateMutability": "nonpayable",
      "type": "function"
    },
    {
      "inputs": [
        {
          "internalType": "address",
          "name": "account",
          "type": "address"
        }
      ],
      "name": "balanceOf",
      "outputs": [
        {
          "internalType": "uint256",
          "name": "",
          "type": "uint256"
        }
      ],
      "stateMutability": "view",
      "type": "function"
    },
    {
      "inputs": [
        {
          "internalType": "address",
          "name": "from",
          "type": "address"
        },
        {
          "internalType": "uint256",
          "name": "_amount",
          "type": "uint256"
        }
      ],
      "name": "burnSupply",
      "outputs": [],
      "stateMutability": "nonpayable",
      "type": "function"
    },
    {
      "inputs": [
        {
          "internalType": "address",
          "name": "account",
          "type": "address"
        },
        {
          "internalType": "uint32",
          "name": "pos",
          "type": "uint32"
        }
      ],
      "name": "checkpoints",
      "outputs": [
        {
          "components": [
            {
              "internalType": "uint48",
              "name": "_key",
              "type": "uint48"
            },
            {
              "internalType": "uint208",
              "name": "_value",
              "type": "uint208"
            }
          ],
          "internalType": "struct Checkpoints.Checkpoint208",
          "name": "",
          "type": "tuple"
        }
      ],
      "stateMutability": "view",
      "type": "function"
    },
    {
      "inputs": [],
      "name": "clock",
      "outputs": [
        {
          "internalType": "uint48",
          "name": "",
          "type": "uint48"
        }
      ],
      "stateMutability": "view",
      "type": "function"
    },
    {
      "inputs": [],
      "name": "daoAddress",
      "outputs": [
        {
          "internalType": "address",
          "name": "",
          "type": "address"
        }
      ],
      "stateMutability": "view",
      "type": "function"
    },
    {
      "inputs": [],
      "name": "decimals",
      "outputs": [
        {
          "internalType": "uint8",
          "name": "",
          "type": "uint8"
        }
      ],
      "stateMutability": "view",
      "type": "function"
    },
    {
      "inputs": [
        {
          "internalType": "address",
          "name": "delegatee",
          "type": "address"
        }
      ],
      "name": "delegate",
      "outputs": [],
      "stateMutability": "nonpayable",
      "type": "function"
    },
    {
      "inputs": [
        {
          "internalType": "address",
          "name": "delegatee",
          "type": "address"
        },
        {
          "internalType": "uint256",
          "name": "nonce",
          "type": "uint256"
        },
        {
          "internalType": "uint256",
          "name": "expiry",
          "type": "uint256"
        },
        {
          "internalType": "uint8",
          "name": "v",
          "type": "uint8"
        },
        {
          "internalType": "bytes32",
          "name": "r",
          "type": "bytes32"
        },
        {
          "internalType": "bytes32",
          "name": "s",
          "type": "bytes32"
        }
      ],
      "name": "delegateBySig",
      "outputs": [],
      "stateMutability": "nonpayable",
      "type": "function"
    },
    {
      "inputs": [
        {
          "internalType": "address",
          "name": "account",
          "type": "address"
        }
      ],
      "name": "delegates",
      "outputs": [
        {
          "internalType": "address",
          "name": "",
          "type": "address"
        }
      ],
      "stateMutability": "view",
      "type": "function"
    },
    {
      "inputs": [],
      "name": "eip712Domain",
      "outputs": [
        {
          "internalType": "bytes1",
          "name": "fields",
          "type": "bytes1"
        },
        {
          "internalType": "string",
          "name": "name",
          "type": "string"
        },
        {
          "internalType": "string",
          "name": "version",
          "type": "string"
        },
        {
          "internalType": "uint256",
          "name": "chainId",
          "type": "uint256"
        },
        {
          "internalType": "address",
          "name": "verifyingContract",
          "type": "address"
        },
        {
          "internalType": "bytes32",
          "name": "salt",
          "type": "bytes32"
        },
        {
          "internalType": "uint256[]",
          "name": "extensions",
          "type": "uint256[]"
        }
      ],
      "stateMutability": "view",
      "type": "function"
    },
    {
      "inputs": [
        {
          "internalType": "uint256",
          "name": "timepoint",
          "type": "uint256"
        }
      ],
      "name": "getPastTotalSupply",
      "outputs": [
        {
          "internalType": "uint256",
          "name": "",
          "type": "uint256"
        }
      ],
      "stateMutability": "view",
      "type": "function"
    },
    {
      "inputs": [
        {
          "internalType": "address",
          "name": "account",
          "type": "address"
        },
        {
          "internalType": "uint256",
          "name": "timepoint",
          "type": "uint256"
        }
      ],
      "name": "getPastVotes",
      "outputs": [
        {
          "internalType": "uint256",
          "name": "",
          "type": "uint256"
        }
      ],
      "stateMutability": "view",
      "type": "function"
    },
    {
      "inputs": [
        {
          "internalType": "bytes32",
          "name": "role",
          "type": "bytes32"
        }
      ],
      "name": "getRoleAdmin",
      "outputs": [
        {
          "internalType": "bytes32",
          "name": "",
          "type": "bytes32"
        }
      ],
      "stateMutability": "view",
      "type": "function"
    },
    {
      "inputs": [
        {
          "internalType": "address",
          "name": "account",
          "type": "address"
        }
      ],
      "name": "getVotes",
      "outputs": [
        {
          "internalType": "uint256",
          "name": "",
          "type": "uint256"
        }
      ],
      "stateMutability": "view",
      "type": "function"
    },
    {
      "inputs": [
        {
          "internalType": "bytes32",
          "name": "role",
          "type": "bytes32"
        },
        {
          "internalType": "address",
          "name": "account",
          "type": "address"
        }
      ],
      "name": "grantRole",
      "outputs": [],
      "stateMutability": "nonpayable",
      "type": "function"
    },
    {
      "inputs": [
        {
          "internalType": "bytes32",
          "name": "role",
          "type": "bytes32"
        },
        {
          "internalType": "address",
          "name": "account",
          "type": "address"
        }
      ],
      "name": "hasRole",
      "outputs": [
        {
          "internalType": "bool",
          "name": "",
          "type": "bool"
        }
      ],
      "stateMutability": "view",
      "type": "function"
    },
    {
      "inputs": [
        {
          "internalType": "address",
          "name": "",
          "type": "address"
        }
      ],
      "name": "isDaoAddress",
      "outputs": [
        {
          "internalType": "bool",
          "name": "",
          "type": "bool"
        }
      ],
      "stateMutability": "view",
      "type": "function"
    },
    {
      "inputs": [],
      "name": "isGovernanceToken",
      "outputs": [
        {
          "internalType": "bool",
          "name": "",
          "type": "bool"
        }
      ],
      "stateMutability": "view",
      "type": "function"
    },
    {
      "inputs": [
        {
          "internalType": "address",
          "name": "",
          "type": "address"
        }
      ],
      "name": "isProposal",
      "outputs": [
        {
          "internalType": "bool",
          "name": "",
          "type": "bool"
        }
      ],
      "stateMutability": "view",
      "type": "function"
    },
    {
      "inputs": [
        {
          "internalType": "address",
          "name": "proposal",
          "type": "address"
        }
      ],
      "name": "isProposalRole",
      "outputs": [
        {
          "internalType": "bool",
          "name": "",
          "type": "bool"
        }
      ],
      "stateMutability": "view",
      "type": "function"
    },
    {
      "inputs": [
        {
          "internalType": "address",
          "name": "to",
          "type": "address"
        },
        {
          "internalType": "uint256",
          "name": "_amount",
          "type": "uint256"
        }
      ],
      "name": "mintSupply",
      "outputs": [],
      "stateMutability": "nonpayable",
      "type": "function"
    },
    {
      "inputs": [],
      "name": "name",
      "outputs": [
        {
          "internalType": "string",
          "name": "",
          "type": "string"
        }
      ],
      "stateMutability": "view",
      "type": "function"
    },
    {
      "inputs": [
        {
          "internalType": "address",
          "name": "owner",
          "type": "address"
        }
      ],
      "name": "nonces",
      "outputs": [
        {
          "internalType": "uint256",
          "name": "",
          "type": "uint256"
        }
      ],
      "stateMutability": "view",
      "type": "function"
    },
    {
      "inputs": [
        {
          "internalType": "address",
          "name": "account",
          "type": "address"
        }
      ],
      "name": "numCheckpoints",
      "outputs": [
        {
          "internalType": "uint32",
          "name": "",
          "type": "uint32"
        }
      ],
      "stateMutability": "view",
      "type": "function"
    },
    {
      "inputs": [],
      "name": "owner",
      "outputs": [
        {
          "internalType": "address",
          "name": "",
          "type": "address"
        }
      ],
      "stateMutability": "view",
      "type": "function"
    },
    {
      "inputs": [],
      "name": "pause",
      "outputs": [],
      "stateMutability": "nonpayable",
      "type": "function"
    },
    {
      "inputs": [],
      "name": "paused",
      "outputs": [
        {
          "internalType": "bool",
          "name": "",
          "type": "bool"
        }
      ],
      "stateMutability": "view",
      "type": "function"
    },
    {
      "inputs": [
        {
          "internalType": "address",
          "name": "owner",
          "type": "address"
        },
        {
          "internalType": "address",
          "name": "spender",
          "type": "address"
        },
        {
          "internalType": "uint256",
          "name": "value",
          "type": "uint256"
        },
        {
          "internalType": "uint256",
          "name": "deadline",
          "type": "uint256"
        },
        {
          "internalType": "uint8",
          "name": "v",
          "type": "uint8"
        },
        {
          "internalType": "bytes32",
          "name": "r",
          "type": "bytes32"
        },
        {
          "internalType": "bytes32",
          "name": "s",
          "type": "bytes32"
        }
      ],
      "name": "permit",
      "outputs": [],
      "stateMutability": "nonpayable",
      "type": "function"
    },
    {
      "inputs": [],
      "name": "renounceOwnership",
      "outputs": [],
      "stateMutability": "nonpayable",
      "type": "function"
    },
    {
      "inputs": [
        {
          "internalType": "bytes32",
          "name": "role",
          "type": "bytes32"
        },
        {
          "internalType": "address",
          "name": "callerConfirmation",
          "type": "address"
        }
      ],
      "name": "renounceRole",
      "outputs": [],
      "stateMutability": "nonpayable",
      "type": "function"
    },
    {
      "inputs": [
        {
          "internalType": "address",
          "name": "proposal",
          "type": "address"
        }
      ],
      "name": "revokeProposalRole",
      "outputs": [],
      "stateMutability": "nonpayable",
      "type": "function"
    },
    {
      "inputs": [
        {
          "internalType": "bytes32",
          "name": "role",
          "type": "bytes32"
        },
        {
          "internalType": "address",
          "name": "account",
          "type": "address"
        }
      ],
      "name": "revokeRole",
      "outputs": [],
      "stateMutability": "nonpayable",
      "type": "function"
    },
    {
      "inputs": [
        {
          "internalType": "address",
          "name": "_daoAddress",
          "type": "address"
        }
      ],
      "name": "setDAOAddress",
      "outputs": [],
      "stateMutability": "nonpayable",
      "type": "function"
    },
    {
      "inputs": [
        {
          "internalType": "address",
          "name": "proposal",
          "type": "address"
        }
      ],
      "name": "setProposalRole",
      "outputs": [],
      "stateMutability": "nonpayable",
      "type": "function"
    },
    {
      "inputs": [
        {
          "internalType": "bytes4",
          "name": "interfaceId",
          "type": "bytes4"
        }
      ],
      "name": "supportsInterface",
      "outputs": [
        {
          "internalType": "bool",
          "name": "",
          "type": "bool"
        }
      ],
      "stateMutability": "view",
      "type": "function"
    },
    {
      "inputs": [],
      "name": "symbol",
      "outputs": [
        {
          "internalType": "string",
          "name": "",
          "type": "string"
        }
      ],
      "stateMutability": "view",
      "type": "function"
    },
    {
      "inputs": [],
      "name": "totalSupply",
      "outputs": [
        {
          "internalType": "uint256",
          "name": "",
          "type": "uint256"
        }
      ],
      "stateMutability": "view",
      "type": "function"
    },
    {
      "inputs": [
        {
          "internalType": "address",
          "name": "recipient",
          "type": "address"
        },
        {
          "internalType": "uint256",
          "name": "amount",
          "type": "uint256"
        }
      ],
      "name": "transfer",
      "outputs": [
        {
          "internalType": "bool",
          "name": "",
          "type": "bool"
        }
      ],
      "stateMutability": "nonpayable",
      "type": "function"
    },
    {
      "inputs": [
        {
          "internalType": "address",
          "name": "from",
          "type": "address"
        },
        {
          "internalType": "address",
          "name": "to",
          "type": "address"
        },
        {
          "internalType": "uint256",
          "name": "value",
          "type": "uint256"
        }
      ],
      "name": "transferFrom",
      "outputs": [
        {
          "internalType": "bool",
          "name": "",
          "type": "bool"
        }
      ],
      "stateMutability": "nonpayable",
      "type": "function"
    },
    {
      "inputs": [
        {
          "internalType": "address",
          "name": "newOwner",
          "type": "address"
        }
      ],
      "name": "transferOwnership",
      "outputs": [],
      "stateMutability": "nonpayable",
      "type": "function"
    },
    {
      "inputs": [],
      "name": "unpause",
      "outputs": [],
      "stateMutability": "nonpayable",
      "type": "function"
    },
    {
      "inputs": [],
      "name": "version",
      "outputs": [
        {
          "internalType": "string",
          "name": "",
          "type": "string"
        }
      ],
      "stateMutability": "pure",
      "type": "function"
    }
  ],
  "bytecode": "0x61016060405234801561001157600080fd5b5060405161340538038061340583398101604081905261003091610551565b6040805180820190915260018152603160f81b602082015285908190858288600361005b8382610690565b5060046100688282610690565b50506005805460ff191690555060016006556001600160a01b0381166100a957604051631e4fbdf760e01b8152600060048201526024015b60405180910390fd5b6100b281610267565b506100be8260086102b9565b610120526100cd8160096102b9565b61014052815160208084019190912060e052815190820120610100524660a05261015a60e05161010051604080517f8b73c3c69bb8fe3d512ecc4cf759cc79239f7b179b0ffacaa9a75d522b39400f60208201529081019290925260608201524660808201523060a082015260009060c00160405160208183030381529060405280519060200120905090565b60805250503060c05250600f8054610100600160a81b031916905561021781606081015160108054602084015184516040860151608087015160a09097015163ff00ff001990941663010000009615159690960261ff00191695909517610100921515929092029190911762ff00ff191690151562ff000019161762010000931515939093029290921761ffff60201b19166401000000009315159390930260ff60281b1916929092176501000000000091151591909102179055565b600f805460ff191660ff84161790556102316000846102ec565b5061025c7f5611063d513780fd7cb3f52dedf0696140727f47ee0024e046ea70e4f4d62a13846102ec565b5050505050506107a5565b600780546001600160a01b038381166001600160a01b0319831681179093556040519116919082907f8be0079c531659141344cd1fd0a4f28419497f9722a3daafe3b4186f6b6457e090600090a35050565b60006020835110156102d5576102ce8361039a565b90506102e6565b816102e08482610690565b5060ff90505b92915050565b6000828152600e602090815260408083206001600160a01b038516845290915281205460ff16610392576000838152600e602090815260408083206001600160a01b03861684529091529020805460ff1916600117905561034a3390565b6001600160a01b0316826001600160a01b0316847f2f8788117e7eff1d82e926ec794901d17c78024a50270940304540a733656f0d60405160405180910390a45060016102e6565b5060006102e6565b600080829050601f815111156103c5578260405163305a27a960e01b81526004016100a0919061074e565b80516103d082610781565b179392505050565b634e487b7160e01b600052604160045260246000fd5b60005b838110156104095781810151838201526020016103f1565b50506000910152565b600082601f83011261042357600080fd5b81516001600160401b0381111561043c5761043c6103d8565b604051601f8201601f19908116603f011681016001600160401b038111828210171561046a5761046a6103d8565b60405281815283820160200185101561048257600080fd5b6104938260208301602087016103ee565b949350505050565b805180151581146104ab57600080fd5b919050565b600060c082840312156104c257600080fd5b60405160c081016001600160401b03811182821017156104e4576104e46103d8565b6040529050806104f38361049b565b81526105016020840161049b565b60208201526105126040840161049b565b60408201526105236060840161049b565b60608201526105346080840161049b565b608082015261054560a0840161049b565b60a08201525092915050565b6000806000806000610140868803121561056a57600080fd5b85516001600160401b0381111561058057600080fd5b61058c88828901610412565b602088015190965090506001600160401b038111156105aa57600080fd5b6105b688828901610412565b604088015190955090506001600160a01b03811681146105d557600080fd5b606087015190935060ff811681146105ec57600080fd5b91506105fb87608088016104b0565b90509295509295909350565b600181811c9082168061061b57607f821691505b60208210810361063b57634e487b7160e01b600052602260045260246000fd5b50919050565b601f82111561068b57806000526020600020601f840160051c810160208510156106685750805b601f840160051c820191505b818110156106885760008155600101610674565b50505b505050565b81516001600160401b038111156106a9576106a96103d8565b6106bd816106b78454610607565b84610641565b6020601f8211600181146106f157600083156106d95750848201515b600019600385901b1c1916600184901b178455610688565b600084815260208120601f198516915b828110156107215787850151825560209485019460019092019101610701565b508482101561073f5786840151600019600387901b60f8161c191681555b50505050600190811b01905550565b602081526000825180602084015261076d8160408501602087016103ee565b601f01601f19169190910160400192915050565b8051602080830151919081101561063b5760001960209190910360031b1b16919050565b60805160a05160c05160e051610100516101205161014051612c066107ff600039600061195a0152600061192d01526000611569015260006115410152600061149c015260006114c6015260006114f00152612c066000f3fe608060405234801561001057600080fd5b50600436106102a05760003560e01c80637ecebe0011610167578063a84b01f1116100ce578063dd62ed3e11610087578063dd62ed3e14610639578063e742806a14610672578063f1127ed814610685578063f2509ce4146106c4578063f2fde38b146106cc578063f99e36bc146106df57600080fd5b8063a84b01f1146105c7578063a9059cbb146105da578063aecf8a6d146105ed578063c3cda52014610600578063d505accf14610613578063d547741f1461062657600080fd5b806391d148541161012057806391d148541461055f57806391ddadf41461057257806395d89b4114610591578063965afa89146105995780639ab24eb0146105ac578063a217fddf146105bf57600080fd5b80637ecebe00146104f2578063810664e7146105055780638456cb591461051857806384b0196e146105205780638da5cb5b1461053b5780638e539e8c1461054c57600080fd5b80633f4ba83a1161020b578063587cde1e116101c4578063587cde1e1461044f5780635c19a95c1461047b5780635c975abb1461048e5780636fcfff451461049957806370a08231146104c1578063715018a6146104ea57600080fd5b80633f4ba83a146103c55780634ac5b7a8146103cd5780634bf5d7e9146103e05780634dca738b146103e8578063520500031461040b57806354fd4d501461042e57600080fd5b8063248a9ca31161025d578063248a9ca31461034a5780632f2ff15d1461036d578063313ce567146103825780633644e5151461039757806336568abe1461039f5780633a46b1a8146103b257600080fd5b806301ffc9a7146102a557806306fdde03146102cd578063095ea7b3146102e257806318160ddd146102f55780632131c68c1461030757806323b872dd14610337575b600080fd5b6102b86102b336600461273c565b610758565b60405190151581526020015b60405180910390f35b6102d561078f565b6040516102c491906127ac565b6102b86102f03660046127db565b610821565b6002545b6040519081526020016102c4565b600f5461031f9061010090046001600160a01b031681565b6040516001600160a01b0390911681526020016102c4565b6102b8610345366004612805565b610839565b6102f9610358366004612842565b6000908152600e602052604090206001015490565b61038061037b36600461285b565b61085d565b005b600f5460405160ff90911681526020016102c4565b6102f9610888565b6103806103ad36600461285b565b610897565b6102f96103c03660046127db565b6108cf565b610380610955565b6102b86103db366004612887565b6109e2565b6102d56109fc565b6102b86103f6366004612887565b60116020526000908152604090205460ff1681565b6102b8610419366004612887565b60126020526000908152604090205460ff1681565b6040805180820190915260058152640312e302e360dc1b60208201526102d5565b61031f61045d366004612887565b6001600160a01b039081166000908152600b60205260409020541690565b610380610489366004612887565b610a74565b60055460ff166102b8565b6104ac6104a7366004612887565b610a83565b60405163ffffffff90911681526020016102c4565b6102f96104cf366004612887565b6001600160a01b031660009081526020819052604090205490565b610380610a8e565b6102f9610500366004612887565b610aa0565b610380610513366004612887565b610aab565b610380610b14565b610528610ba0565b6040516102c497969594939291906128a2565b6007546001600160a01b031661031f565b6102f961055a366004612842565b610be6565b6102b861056d36600461285b565b610c50565b61057a610c7b565b60405165ffffffffffff90911681526020016102c4565b6102d5610c85565b6103806105a7366004612887565b610c94565b6102f96105ba366004612887565b610d6e565b6102f9600081565b6103806105d5366004612887565b610d9e565b6102b86105e83660046127db565b610e50565b6103806105fb3660046127db565b610ea6565b61038061060e36600461294b565b610f97565b6103806106213660046129a3565b611054565b61038061063436600461285b565b61118e565b6102f9610647366004612a0e565b6001600160a01b03918216600090815260016020908152604080832093909416825291909152205490565b6103806106803660046127db565b6111b3565b610698610693366004612a38565b611286565b60408051825165ffffffffffff1681526020928301516001600160d01b031692810192909252016102c4565b6102b86112ab565b6103806106da366004612887565b6112cf565b60105461071f9060ff8082169161010081048216916201000082048116916301000000810482169164010000000082048116916501000000000090041686565b604080519615158752941515602087015292151593850193909352151560608401529015156080830152151560a082015260c0016102c4565b60006001600160e01b03198216637965db0b60e01b148061078957506301ffc9a760e01b6001600160e01b03198316145b92915050565b60606003805461079e90612a78565b80601f01602080910402602001604051908101604052809291908181526020018280546107ca90612a78565b80156108175780601f106107ec57610100808354040283529160200191610817565b820191906000526020600020905b8154815290600101906020018083116107fa57829003601f168201915b5050505050905090565b60003361082f81858561130d565b5060019392505050565b60003361084785828561131a565b610852858585611392565b506001949350505050565b6000828152600e6020526040902060010154610878816113f1565b61088283836113fb565b50505050565b600061089261148f565b905090565b6001600160a01b03811633146108c05760405163334bd91960e11b815260040160405180910390fd5b6108ca82826115ba565b505050565b6000806108da610c7b565b90508065ffffffffffff16831061091a57604051637669fc0f60e11b81526004810184905265ffffffffffff821660248201526044015b60405180910390fd5b61094461092684611627565b6001600160a01b0386166000908152600c602052604090209061165e565b6001600160d01b0316949350505050565b60105462010000900460ff1661097e57604051634beb0e8d60e11b815260040160405180910390fd5b610986611714565b60055460ff166109d85760405162461bcd60e51b815260206004820152601760248201527f436f6e7472616374206973206e6f74207061757365642e0000000000000000006044820152606401610911565b6109e0611737565b565b6000610789600080516020612bb183398151915283610c50565b6060610a06611789565b65ffffffffffff16610a16610c7b565b65ffffffffffff1614610a3c576040516301bfc1c560e61b815260040160405180910390fd5b5060408051808201909152601d81527f6d6f64653d626c6f636b6e756d6265722666726f6d3d64656661756c74000000602082015290565b33610a7f8183611794565b5050565b600061078982611806565b610a96611828565b6109e06000611855565b6000610789826118a7565b6001600160a01b038116610afc5760405162461bcd60e51b8152602060048201526018602482015277496e76616c69642070726f706f73616c206164647265737360401b6044820152606401610911565b610a7f600080516020612bb1833981519152826115ba565b60105462010000900460ff16610b3d57604051634beb0e8d60e11b815260040160405180910390fd5b610b456118c5565b60055460ff1615610b985760405162461bcd60e51b815260206004820152601b60248201527f436f6e747261637420697320616c7265616479207061757365642e00000000006044820152606401610911565b6109e06118e9565b600060608060008060006060610bb4611926565b610bbc611953565b60408051600080825260208201909252600f60f81b9b939a50919850469750309650945092509050565b600080610bf1610c7b565b90508065ffffffffffff168310610c2c57604051637669fc0f60e11b81526004810184905265ffffffffffff82166024820152604401610911565b610c40610c3884611627565b600d9061165e565b6001600160d01b03169392505050565b6000918252600e602090815260408084206001600160a01b0393909316845291905290205460ff1690565b6000610892611789565b60606004805461079e90612a78565b6001600160a01b038116610ce05760405162461bcd60e51b8152602060048201526013602482015272496e76616c69642044414f206164647265737360681b6044820152606401610911565b600f8054610100600160a81b0319166101006001600160a01b038416908102919091179091556000908152601160205260409020805460ff19166001179055610d37600080516020612b91833981519152826113fb565b50610d627fb7cd08e7968c8eb3cceee719dc902b03ff20ef36607309c7b72f07cdb4dbcd3d826113fb565b50610a7f6000826113fb565b6001600160a01b0381166000908152600c60205260408120610d8f90611980565b6001600160d01b031692915050565b3360008181526011602052604090205460ff16610dce57604051638018e00f60e01b815260040160405180910390fd5b6001600160a01b038216610e1f5760405162461bcd60e51b8152602060048201526018602482015277496e76616c69642070726f706f73616c206164647265737360401b6044820152606401610911565b610e37600080516020612bb1833981519152836113fb565b506108ca600080516020612b91833981519152836113fb565b601054600090640100000000900460ff16610e7e576040516334bc2a9160e01b815260040160405180910390fd5b610e866119b9565b610e8e6118c5565b610e99338484611392565b5060016107896001600655565b601054610100900460ff16610ece5760405163f5cd3cbb60e01b815260040160405180910390fd5b610ed66119b9565b610ede6118c5565b7fb7cd08e7968c8eb3cceee719dc902b03ff20ef36607309c7b72f07cdb4dbcd3d610f17600080516020612b9183398151915233610c50565b80610f475750610f477fb7cd08e7968c8eb3cceee719dc902b03ff20ef36607309c7b72f07cdb4dbcd3d33610c50565b80610f655750610f65600080516020612bb183398151915233610c50565b610f8257604051636f2e121d60e01b815260040160405180910390fd5b610f8c83836119e3565b50610a7f6001600655565b83421115610fbb57604051632341d78760e11b815260048101859052602401610911565b604080517fe48329057bfd03d55e49b547132e39cffd9c1820ad7b9d4c5307691425d15adf60208201526001600160a01b0388169181019190915260608101869052608081018590526000906110359061102d9060a00160405160208183030381529060405280519060200120611a19565b858585611a46565b90506110418187611a74565b61104b8188611794565b50505050505050565b834211156110785760405163313c898160e11b815260048101859052602401610911565b60007f6e71edae12b1b97f4d1f60370fef10105fa2faae0126114a169c64845d6126c98888886110c58c6001600160a01b03166000908152600a6020526040902080546001810190915590565b6040805160208101969096526001600160a01b0394851690860152929091166060840152608083015260a082015260c0810186905260e001604051602081830303815290604052805190602001209050600061112082611a19565b9050600061113082878787611a46565b9050896001600160a01b0316816001600160a01b031614611177576040516325c0072360e11b81526001600160a01b0380831660048301528b166024820152604401610911565b6111828a8a8a61130d565b50505050505050505050565b6000828152600e60205260409020600101546111a9816113f1565b61088283836115ba565b6111bb6119b9565b6111c36118c5565b60105460ff166111e657604051632203aebf60e21b815260040160405180910390fd5b6001600160a01b03821661120d5760405163e720ed0d60e01b815260040160405180910390fd5b6000811161122e5760405163082e6a8360e31b815260040160405180910390fd5b611246600080516020612b9183398151915233610c50565b806112555750611255336109e2565b61127257604051636f2e121d60e01b815260040160405180910390fd5b61127c8282611ac7565b610a7f6001600655565b60408051808201909152600080825260208201526112a48383611afd565b9392505050565b600f5460009061010090046001600160a01b03166112c95750600190565b50600090565b6112d7611828565b6001600160a01b03811661130157604051631e4fbdf760e01b815260006004820152602401610911565b61130a81611855565b50565b6108ca8383836001611b33565b6001600160a01b038381166000908152600160209081526040808320938616835292905220546000198114610882578181101561138357604051637dc7a0d960e11b81526001600160a01b03841660048201526024810182905260448101839052606401610911565b61088284848484036000611b33565b6001600160a01b0383166113bc57604051634b637e8f60e11b815260006004820152602401610911565b6001600160a01b0382166113e65760405163ec442f0560e01b815260006004820152602401610911565b6108ca838383611c08565b61130a8133611c1b565b60006114078383610c50565b611487576000838152600e602090815260408083206001600160a01b03861684529091529020805460ff1916600117905561143f3390565b6001600160a01b0316826001600160a01b0316847f2f8788117e7eff1d82e926ec794901d17c78024a50270940304540a733656f0d60405160405180910390a4506001610789565b506000610789565b6000306001600160a01b037f0000000000000000000000000000000000000000000000000000000000000000161480156114e857507f000000000000000000000000000000000000000000000000000000000000000046145b1561151257507f000000000000000000000000000000000000000000000000000000000000000090565b610892604080517f8b73c3c69bb8fe3d512ecc4cf759cc79239f7b179b0ffacaa9a75d522b39400f60208201527f0000000000000000000000000000000000000000000000000000000000000000918101919091527f000000000000000000000000000000000000000000000000000000000000000060608201524660808201523060a082015260009060c00160405160208183030381529060405280519060200120905090565b60006115c68383610c50565b15611487576000838152600e602090815260408083206001600160a01b0386168085529252808320805460ff1916905551339286917ff6391f5c32d9c69d2a47ea670b442974b53935d1edc7fd64eb21e047a839171b9190a4506001610789565b600065ffffffffffff82111561165a576040516306dfcc6560e41b81526030600482015260248101839052604401610911565b5090565b8154600090818160058111156116bd57600061167984611c54565b6116839085612ac8565b60008881526020902090915081015465ffffffffffff90811690871610156116ad578091506116bb565b6116b8816001612adb565b92505b505b60006116cb87878585611d3c565b90508015611706576116f0876116e2600184612ac8565b600091825260209091200190565b54600160301b90046001600160d01b0316611709565b60005b979650505050505050565b60055460ff166109e057604051638dfc202b60e01b815260040160405180910390fd5b61173f611714565b6005805460ff191690557f5db9ee0a495bf2e6ff9c91a7834c1ba4fdd244a5e8aa4e537bd38aeae4b073aa335b6040516001600160a01b03909116815260200160405180910390a1565b600061089243611627565b6001600160a01b038281166000818152600b602052604080822080548686166001600160a01b0319821681179092559151919094169392849290917f3134e8a2e6d97e929a7e54011ea5485d7d196dd5f0ba4d4ef95803e8e3fc257f9190a46108ca818361180186611d9e565b611dbc565b6001600160a01b0381166000908152600c602052604081205461078990611f28565b6007546001600160a01b031633146109e05760405163118cdaa760e01b8152336004820152602401610911565b600780546001600160a01b038381166001600160a01b0319831681179093556040519116919082907f8be0079c531659141344cd1fd0a4f28419497f9722a3daafe3b4186f6b6457e090600090a35050565b6001600160a01b0381166000908152600a6020526040812054610789565b60055460ff16156109e05760405163d93c066560e01b815260040160405180910390fd5b6118f16118c5565b6005805460ff191660011790557f62e78cea01bee320cd4e420270b5ea74000d11b0c9f74754ebdbfc544b05a25861176c3390565b60606108927f00000000000000000000000000000000000000000000000000000000000000006008611f59565b60606108927f00000000000000000000000000000000000000000000000000000000000000006009611f59565b805460009080156119b05761199a836116e2600184612ac8565b54600160301b90046001600160d01b03166112a4565b60009392505050565b6002600654036119dc57604051633ee5aeb560e01b815260040160405180910390fd5b6002600655565b6001600160a01b038216611a0d57604051634b637e8f60e11b815260006004820152602401610911565b610a7f82600083611c08565b6000610789611a2661148f565b8360405161190160f01b8152600281019290925260228201526042902090565b600080600080611a5888888888612004565b925092509250611a6882826120d3565b50909695505050505050565b6001600160a01b0382166000908152600a602052604090208054600181019091558181146108ca576040516301d4b62360e61b81526001600160a01b038416600482015260248101829052604401610911565b6001600160a01b038216611af15760405163ec442f0560e01b815260006004820152602401610911565b610a7f60008383611c08565b60408051808201909152600080825260208201526001600160a01b0383166000908152600c602052604090206112a4908361218c565b6001600160a01b038416611b5d5760405163e602df0560e01b815260006004820152602401610911565b6001600160a01b038316611b8757604051634a1406b160e11b815260006004820152602401610911565b6001600160a01b038085166000908152600160209081526040808320938716835292905220829055801561088257826001600160a01b0316846001600160a01b03167f8c5be1e5ebec7d5bd14f71427d1e84f3dd0314c0f7b2291e5b200ac8c7c3b92584604051611bfa91815260200190565b60405180910390a350505050565b611c106118c5565b6108ca8383836121fc565b611c258282610c50565b610a7f5760405163e2517d3f60e01b81526001600160a01b038216600482015260248101839052604401610911565b600081600003611c6657506000919050565b60006001611c7384612263565b901c6001901b90506001818481611c8c57611c8c612aee565b048201901c90506001818481611ca457611ca4612aee565b048201901c90506001818481611cbc57611cbc612aee565b048201901c90506001818481611cd457611cd4612aee565b048201901c90506001818481611cec57611cec612aee565b048201901c90506001818481611d0457611d04612aee565b048201901c90506001818481611d1c57611d1c612aee565b048201901c90506112a481828581611d3657611d36612aee565b046122f7565b60005b81831015611d96576000611d53848461230d565b60008781526020902090915065ffffffffffff86169082015465ffffffffffff161115611d8257809250611d90565b611d8d816001612adb565b93505b50611d3f565b509392505050565b6001600160a01b038116600090815260208190526040812054610789565b816001600160a01b0316836001600160a01b031614158015611dde5750600081115b156108ca576001600160a01b03831615611e86576001600160a01b0383166000908152600c602052604081208190611e2190612328611e1c86612334565b612368565b6001600160d01b031691506001600160d01b03169150846001600160a01b03167fdec2bacdd2f05b59de34da9b523dff8be42e5e38e818c82fdb0bae774387a7248383604051611e7b929190918252602082015260400190565b60405180910390a250505b6001600160a01b038216156108ca576001600160a01b0382166000908152600c602052604081208190611ebf906123a1611e1c86612334565b6001600160d01b031691506001600160d01b03169150836001600160a01b03167fdec2bacdd2f05b59de34da9b523dff8be42e5e38e818c82fdb0bae774387a7248383604051611f19929190918252602082015260400190565b60405180910390a25050505050565b600063ffffffff82111561165a576040516306dfcc6560e41b81526020600482015260248101839052604401610911565b606060ff8314611f7357611f6c836123ad565b9050610789565b818054611f7f90612a78565b80601f0160208091040260200160405190810160405280929190818152602001828054611fab90612a78565b8015611ff85780601f10611fcd57610100808354040283529160200191611ff8565b820191906000526020600020905b815481529060010190602001808311611fdb57829003601f168201915b50505050509050610789565b600080807f7fffffffffffffffffffffffffffffff5d576e7357a4501ddfe92f46681b20a084111561203f57506000915060039050826120c9565b604080516000808252602082018084528a905260ff891692820192909252606081018790526080810186905260019060a0016020604051602081039080840390855afa158015612093573d6000803e3d6000fd5b5050604051601f1901519150506001600160a01b0381166120bf575060009250600191508290506120c9565b9250600091508190505b9450945094915050565b60008260038111156120e7576120e7612b04565b036120f0575050565b600182600381111561210457612104612b04565b036121225760405163f645eedf60e01b815260040160405180910390fd5b600282600381111561213657612136612b04565b036121575760405163fce698f760e01b815260048101829052602401610911565b600382600381111561216b5761216b612b04565b03610a7f576040516335e2f38360e21b815260048101829052602401610911565b6040805180820190915260008082526020820152826000018263ffffffff16815481106121bb576121bb612b1a565b60009182526020918290206040805180820190915291015465ffffffffffff81168252600160301b90046001600160d01b0316918101919091529392505050565b6122078383836123ec565b6001600160a01b03831661225857600061222060025490565b90506001600160d01b038082111561225557604051630e58ae9360e11b81526004810183905260248101829052604401610911565b50505b6108ca838383612516565b600080608083901c1561227857608092831c92015b604083901c1561228a57604092831c92015b602083901c1561229c57602092831c92015b601083901c156122ae57601092831c92015b600883901c156122c057600892831c92015b600483901c156122d257600492831c92015b600283901c156122e457600292831c92015b600183901c156107895760010192915050565b600081831061230657816112a4565b5090919050565b600061231c6002848418612b30565b6112a490848416612adb565b60006112a48284612b52565b60006001600160d01b0382111561165a576040516306dfcc6560e41b815260d0600482015260248101839052604401610911565b600080612394612376610c7b565b61238c61238288611980565b868863ffffffff16565b87919061258c565b915091505b935093915050565b60006112a48284612b71565b606060006123ba8361259a565b604080516020808252818301909252919250600091906020820181803683375050509182525060208101929092525090565b6001600160a01b03831661241757806002600082825461240c9190612adb565b909155506124899050565b6001600160a01b0383166000908152602081905260409020548181101561246a5760405163391434e360e21b81526001600160a01b03851660048201526024810182905260448101839052606401610911565b6001600160a01b03841660009081526020819052604090209082900390555b6001600160a01b0382166124a5576002805482900390556124c4565b6001600160a01b03821660009081526020819052604090208054820190555b816001600160a01b0316836001600160a01b03167fddf252ad1be2c89b69c2b068fc378daa952ba7f163c4a11628f55a4df523b3ef8360405161250991815260200190565b60405180910390a3505050565b6001600160a01b03831661253857612535600d6123a1611e1c84612334565b50505b6001600160a01b03821661255a57612557600d612328611e1c84612334565b50505b6001600160a01b038381166000908152600b60205260408082205485841683529120546108ca92918216911683611dbc565b6000806123948585856125c2565b600060ff8216601f81111561078957604051632cd44ac360e21b815260040160405180910390fd5b8254600090819080156126e15760006125e0876116e2600185612ac8565b60408051808201909152905465ffffffffffff808216808452600160301b9092046001600160d01b03166020840152919250908716101561263457604051632520601d60e01b815260040160405180910390fd5b805165ffffffffffff8088169116036126805784612657886116e2600186612ac8565b80546001600160d01b0392909216600160301b0265ffffffffffff9092169190911790556126d1565b6040805180820190915265ffffffffffff80881682526001600160d01b0380881660208085019182528b54600181018d5560008d81529190912094519151909216600160301b029216919091179101555b6020015192508391506123999050565b50506040805180820190915265ffffffffffff80851682526001600160d01b0380851660208085019182528854600181018a5560008a815291822095519251909316600160301b029190931617920191909155905081612399565b60006020828403121561274e57600080fd5b81356001600160e01b0319811681146112a457600080fd5b6000815180845260005b8181101561278c57602081850181015186830182015201612770565b506000602082860101526020601f19601f83011685010191505092915050565b6020815260006112a46020830184612766565b80356001600160a01b03811681146127d657600080fd5b919050565b600080604083850312156127ee57600080fd5b6127f7836127bf565b946020939093013593505050565b60008060006060848603121561281a57600080fd5b612823846127bf565b9250612831602085016127bf565b929592945050506040919091013590565b60006020828403121561285457600080fd5b5035919050565b6000806040838503121561286e57600080fd5b8235915061287e602084016127bf565b90509250929050565b60006020828403121561289957600080fd5b6112a4826127bf565b60ff60f81b8816815260e0602082015260006128c160e0830189612766565b82810360408401526128d38189612766565b606084018890526001600160a01b038716608085015260a0840186905283810360c08501528451808252602080870193509091019060005b8181101561292957835183526020938401939092019160010161290b565b50909b9a5050505050505050505050565b803560ff811681146127d657600080fd5b60008060008060008060c0878903121561296457600080fd5b61296d876127bf565b955060208701359450604087013593506129896060880161293a565b9598949750929560808101359460a0909101359350915050565b600080600080600080600060e0888a0312156129be57600080fd5b6129c7886127bf565b96506129d5602089016127bf565b955060408801359450606088013593506129f16080890161293a565b9699959850939692959460a0840135945060c09093013592915050565b60008060408385031215612a2157600080fd5b612a2a836127bf565b915061287e602084016127bf565b60008060408385031215612a4b57600080fd5b612a54836127bf565b9150602083013563ffffffff81168114612a6d57600080fd5b809150509250929050565b600181811c90821680612a8c57607f821691505b602082108103612aac57634e487b7160e01b600052602260045260246000fd5b50919050565b634e487b7160e01b600052601160045260246000fd5b8181038181111561078957610789612ab2565b8082018082111561078957610789612ab2565b634e487b7160e01b600052601260045260246000fd5b634e487b7160e01b600052602160045260246000fd5b634e487b7160e01b600052603260045260246000fd5b600082612b4d57634e487b7160e01b600052601260045260246000fd5b500490565b6001600160d01b03828116828216039081111561078957610789612ab2565b6001600160d01b03818116838216019081111561078957610789612ab256fe262c70cb68844873654dc54487b634cb00850c1e13c785cd0d96a2b89b829472b0aafe805b29ea5e57cdf96e1f39c2ff0e6edd978cc45f739c43f08208c90d6ea2646970667358221220ee5d9d15c740966c8d7ea52d860ed4718035f290cb5569682f92f138af7a46c664736f6c634300081b0033",
  "linkReferences": {},
  "deployedLinkReferences": {}
}