{
  "_format": "hh-sol-artifact-1",
  "contractName": "Proposal",
  "sourceName": "contracts/Proposal.sol",
  "abi": [
    {
      "inputs": [
        {
          "internalType": "address",
          "name": "_daoAddress",
          "type": "address"
        },
        {
          "internalType": "address",
          "name": "_creatorAddress",
          "type": "address"
        },
        {
          "internalType": "string",
          "name": "_title",
          "type": "string"
        },
        {
          "internalType": "string",
          "name": "_description",
          "type": "string"
        },
        {
          "internalType": "uint32",
          "name": "_startTime",
          "type": "uint32"
        },
        {
          "internalType": "uint32",
          "name": "_duration",
          "type": "uint32"
        },
        {
          "components": [
            {
              "internalType": "address",
              "name": "to",
              "type": "address"
            },
            {
              "internalType": "uint256",
              "name": "value",
              "type": "uint256"
            },
            {
              "internalType": "bytes",
              "name": "data",
              "type": "bytes"
            }
          ],
          "internalType": "struct IProposal.Action[]",
          "name": "_actions",
          "type": "tuple[]"
        },
        {
          "internalType": "address",
          "name": "_governanceTokenAddress",
          "type": "address"
        },
        {
          "internalType": "uint8",
          "name": "_minimumParticipationPercentage",
          "type": "uint8"
        },
        {
          "internalType": "uint8",
          "name": "_supportThresholdPercentage",
          "type": "uint8"
        },
        {
          "internalType": "bool",
          "name": "_earlyExecution",
          "type": "bool"
        }
      ],
      "stateMutability": "nonpayable",
      "type": "constructor"
    },
    {
      "inputs": [
        {
          "internalType": "string",
          "name": "expected",
          "type": "string"
        },
        {
          "internalType": "uint256",
          "name": "actual",
          "type": "uint256"
        }
      ],
      "name": "InvalidVoteType",
      "type": "error"
    },
    {
      "inputs": [],
      "name": "abstainVotes",
      "outputs": [
        {
          "internalType": "uint256",
          "name": "",
          "type": "uint256"
        }
      ],
      "stateMutability": "view",
      "type": "function"
    },
    {
      "inputs": [
        {
          "internalType": "uint256",
          "name": "",
          "type": "uint256"
        }
      ],
      "name": "actions",
      "outputs": [
        {
          "internalType": "address",
          "name": "to",
          "type": "address"
        },
        {
          "internalType": "uint256",
          "name": "value",
          "type": "uint256"
        },
        {
          "internalType": "bytes",
          "name": "data",
          "type": "bytes"
        }
      ],
      "stateMutability": "view",
      "type": "function"
    },
    {
      "inputs": [],
      "name": "approved",
      "outputs": [
        {
          "internalType": "bool",
          "name": "",
          "type": "bool"
        }
      ],
      "stateMutability": "view",
      "type": "function"
    },
    {
      "inputs": [],
      "name": "creatorAddress",
      "outputs": [
        {
          "internalType": "address",
          "name": "",
          "type": "address"
        }
      ],
      "stateMutability": "view",
      "type": "function"
    },
    {
      "inputs": [],
      "name": "dao",
      "outputs": [
        {
          "internalType": "contract DAO",
          "name": "",
          "type": "address"
        }
      ],
      "stateMutability": "view",
      "type": "function"
    },
    {
      "inputs": [],
      "name": "earlyExecution",
      "outputs": [
        {
          "internalType": "bool",
          "name": "",
          "type": "bool"
        }
      ],
      "stateMutability": "view",
      "type": "function"
    },
    {
      "inputs": [],
      "name": "endTime",
      "outputs": [
        {
          "internalType": "uint32",
          "name": "",
          "type": "uint32"
        }
      ],
      "stateMutability": "view",
      "type": "function"
    },
    {
      "inputs": [],
      "name": "executeProposal",
      "outputs": [],
      "stateMutability": "nonpayable",
      "type": "function"
    },
    {
      "inputs": [],
      "name": "executed",
      "outputs": [
        {
          "internalType": "bool",
          "name": "",
          "type": "bool"
        }
      ],
      "stateMutability": "view",
      "type": "function"
    },
    {
      "inputs": [],
      "name": "governanceTokenAddress",
      "outputs": [
        {
          "internalType": "address",
          "name": "",
          "type": "address"
        }
      ],
      "stateMutability": "view",
      "type": "function"
    },
    {
      "inputs": [
        {
          "internalType": "address",
          "name": "",
          "type": "address"
        }
      ],
      "name": "hasVoted",
      "outputs": [
        {
          "internalType": "bool",
          "name": "",
          "type": "bool"
        }
      ],
      "stateMutability": "view",
      "type": "function"
    },
    {
      "inputs": [],
      "name": "minimumParticipationPercentage",
      "outputs": [
        {
          "internalType": "uint8",
          "name": "",
          "type": "uint8"
        }
      ],
      "stateMutability": "view",
      "type": "function"
    },
    {
      "inputs": [],
      "name": "noVotes",
      "outputs": [
        {
          "internalType": "uint256",
          "name": "",
          "type": "uint256"
        }
      ],
      "stateMutability": "view",
      "type": "function"
    },
    {
      "inputs": [],
      "name": "proposalDescription",
      "outputs": [
        {
          "internalType": "string",
          "name": "",
          "type": "string"
        }
      ],
      "stateMutability": "view",
      "type": "function"
    },
    {
      "inputs": [],
      "name": "proposalTitle",
      "outputs": [
        {
          "internalType": "string",
          "name": "",
          "type": "string"
        }
      ],
      "stateMutability": "view",
      "type": "function"
    },
    {
      "inputs": [],
      "name": "startTime",
      "outputs": [
        {
          "internalType": "uint32",
          "name": "",
          "type": "uint32"
        }
      ],
      "stateMutability": "view",
      "type": "function"
    },
    {
      "inputs": [],
      "name": "status",
      "outputs": [
        {
          "internalType": "uint8",
          "name": "",
          "type": "uint8"
        }
      ],
      "stateMutability": "view",
      "type": "function"
    },
    {
      "inputs": [],
      "name": "supportThresholdPercentage",
      "outputs": [
        {
          "internalType": "uint8",
          "name": "",
          "type": "uint8"
        }
      ],
      "stateMutability": "view",
      "type": "function"
    },
    {
      "inputs": [
        {
          "internalType": "uint8",
          "name": "_voteOption",
          "type": "uint8"
        }
      ],
      "name": "vote",
      "outputs": [],
      "stateMutability": "nonpayable",
      "type": "function"
    },
    {
      "inputs": [],
      "name": "yesVotes",
      "outputs": [
        {
          "internalType": "uint256",
          "name": "",
          "type": "uint256"
        }
      ],
      "stateMutability": "view",
      "type": "function"
    }
  ],
  "bytecode": "0x608060405234801561001057600080fd5b5060405161187238038061187283398101604081905261002f91610478565b600080546001600160a01b03199081166001600160a01b038e8116918217909355600980548316909117905560018054909116918c1691909117905560036100778a8261061f565b506004610084898261061f565b506008805463ffffffff191663ffffffff89169081179091556100a89087906106f3565b60088054600280546001600160a01b0319166001600160a01b0389161790556801000000000000000065ff00ffffffff60201b1990911664010000000063ffffffff949094169390930260ff60481b191692909217690100000000000000000060ff878116919091029190911763ff0000ff60501b19166a01000000000000000000009186169190910260ff60681b1916176d0100000000000000000000000000841515021760ff60401b191691909117905560005b85518160ff1610156101f957600a868260ff168151811061018157610181610715565b602090810291909101810151825460018082018555600094855293839020825160039092020180546001600160a01b0319166001600160a01b039092169190911781559181015192820192909255604082015160028201906101e3908261061f565b50505080806101f19061072b565b91505061015e565b50505050505050505050505061074a565b80516001600160a01b038116811461022157600080fd5b919050565b634e487b7160e01b600052604160045260246000fd5b604051606081016001600160401b038111828210171561025e5761025e610226565b60405290565b604051601f8201601f191681016001600160401b038111828210171561028c5761028c610226565b604052919050565b6000806001600160401b038411156102ae576102ae610226565b50601f8301601f19166020016102c381610264565b9150508281528383830111156102d857600080fd5b60005b838110156102f95780830151602082840101526020810190506102db565b506000602084830101529392505050565b600082601f83011261031b57600080fd5b61032a83835160208501610294565b9392505050565b805163ffffffff8116811461022157600080fd5b600082601f83011261035657600080fd5b81516001600160401b0381111561036f5761036f610226565b8060051b61037f60208201610264565b9182526020818501810192908101908684111561039b57600080fd5b6020860192505b8383101561044d5782516001600160401b038111156103c057600080fd5b86016060818903601f190112156103d657600080fd5b6103de61023c565b6103ea6020830161020a565b81526040820151602082015260608201516001600160401b0381111561040f57600080fd5b60208184010192505088601f83011261042757600080fd5b61043689835160208501610294565b6040820152835250602092830192909101906103a2565b9695505050505050565b805160ff8116811461022157600080fd5b8051801515811461022157600080fd5b60008060008060008060008060008060006101608c8e03121561049a57600080fd5b6104a38c61020a565b9a506104b160208d0161020a565b60408d0151909a506001600160401b038111156104cd57600080fd5b6104d98e828f0161030a565b60608e0151909a5090506001600160401b038111156104f757600080fd5b6105038e828f0161030a565b98505061051260808d01610331565b965061052060a08d01610331565b60c08d01519096506001600160401b0381111561053c57600080fd5b6105488e828f01610345565b95505061055760e08d0161020a565b93506105666101008d01610457565b92506105756101208d01610457565b91506105846101408d01610468565b90509295989b509295989b9093969950565b600181811c908216806105aa57607f821691505b6020821081036105ca57634e487b7160e01b600052602260045260246000fd5b50919050565b601f82111561061a57806000526020600020601f840160051c810160208510156105f75750805b601f840160051c820191505b818110156106175760008155600101610603565b50505b505050565b81516001600160401b0381111561063857610638610226565b61064c816106468454610596565b846105d0565b6020601f82116001811461068057600083156106685750848201515b600019600385901b1c1916600184901b178455610617565b600084815260208120601f198516915b828110156106b05787850151825560209485019460019092019101610690565b50848210156106ce5786840151600019600387901b60f8161c191681555b50505050600190811b01905550565b634e487b7160e01b600052601160045260246000fd5b63ffffffff818116838216019081111561070f5761070f6106dd565b92915050565b634e487b7160e01b600052603260045260246000fd5b600060ff821660ff8103610741576107416106dd565b60010192915050565b611119806107596000396000f3fe608060405234801561001057600080fd5b506004361061012c5760003560e01c806378e97925116100ad578063b5b47f4211610071578063b5b47f42146102c5578063e5045752146102ce578063e927fc5c146102d6578063e987194f146102e9578063fb286c65146102fd57600080fd5b806378e97925146102595780637e7b1d421461026957806383240f831461027d578063b3f98adc1461029f578063b42165d0146102b257600080fd5b806331a38c89116100f457806331a38c89146101e757806334305545146101fb578063373058b8146102105780634162169f1461021a57806360f8abb91461024557600080fd5b806309eef43e146101315780630be488941461016957806319d40b0814610180578063200d2ed2146101945780633197cbb6146101ba575b600080fd5b61015461013f366004610edc565b600b6020526000908152604090205460ff1681565b60405190151581526020015b60405180910390f35b61017260075481565b604051908152602001610160565b60085461015490600160601b900460ff1681565b6008546101a890600160401b900460ff1681565b60405160ff9091168152602001610160565b6008546101d290640100000000900463ffffffff1681565b60405163ffffffff9091168152602001610160565b60085461015490600160581b900460ff1681565b610203610306565b6040516101609190610f55565b610218610394565b005b60095461022d906001600160a01b031681565b6040516001600160a01b039091168152602001610160565b6008546101a890600160481b900460ff1681565b6008546101d29063ffffffff1681565b60085461015490600160681b900460ff1681565b61029061028b366004610f68565b61063a565b60405161016093929190610f81565b6102186102ad366004610fb1565b610703565b60025461022d906001600160a01b031681565b61017260065481565b610203610ddd565b60015461022d906001600160a01b031681565b6008546101a890600160501b900460ff1681565b61017260055481565b6004805461031390610fd4565b80601f016020809104026020016040519081016040528092919081815260200182805461033f90610fd4565b801561038c5780601f106103615761010080835404028352916020019161038c565b820191906000526020600020905b81548152906001019060200180831161036f57829003601f168201915b505050505081565b600854600160581b900460ff16156103ef5760405162461bcd60e51b8152602060048201526019602482015278141c9bdc1bdcd85b08185b1c9958591e48195e1958dd5d1959603a1b60448201526064015b60405180910390fd5b600854600160601b900460ff166104485760405162461bcd60e51b815260206004820152601960248201527f50726f706f73616c206e6f742079657420617070726f7665640000000000000060448201526064016103e6565b600880546bff0000ff000000000000000019166b01000003000000000000000017905560005b600a54811015610637576000600a828154811061048d5761048d61100e565b90600052602060002090600302016040518060600160405290816000820160009054906101000a90046001600160a01b03166001600160a01b03166001600160a01b03168152602001600182015481526020016002820180546104ef90610fd4565b80601f016020809104026020016040519081016040528092919081815260200182805461051b90610fd4565b80156105685780601f1061053d57610100808354040283529160200191610568565b820191906000526020600020905b81548152906001019060200180831161054b57829003601f168201915b5050505050815250509050600081600001516001600160a01b03168260200151836040015160405161059a9190611024565b60006040518083038185875af1925050503d80600081146105d7576040519150601f19603f3d011682016040523d82523d6000602084013e6105dc565b606091505b505090508061062d5760405162461bcd60e51b815260206004820152601760248201527f416374696f6e20657865637574696f6e206661696c656400000000000000000060448201526064016103e6565b505060010161046e565b50565b600a818154811061064a57600080fd5b60009182526020909120600390910201805460018201546002830180546001600160a01b03909316945090929161068090610fd4565b80601f01602080910402602001604051908101604052809291908181526020018280546106ac90610fd4565b80156106f95780601f106106ce576101008083540402835291602001916106f9565b820191906000526020600020905b8154815290600101906020018083116106dc57829003601f168201915b5050505050905083565b60095460405163fe436c5360e01b81523360048201526001600160a01b039091169063fe436c5390602401602060405180830381865afa15801561074b573d6000803e3d6000fd5b505050506040513d601f19601f8201168201806040525081019061076f9190611040565b6107c95760405162461bcd60e51b815260206004820152602560248201527f44414f203a20596f7520617265206e6f742061206d656d626572206f66207468604482015264652064616f60d81b60648201526084016103e6565b600854600160401b900460ff166108175760405162461bcd60e51b8152602060048201526012602482015271141c9bdc1bdcd85b081b9bdd08195e1a5cdd60721b60448201526064016103e6565b600854600160581b900460ff161561086d5760405162461bcd60e51b8152602060048201526019602482015278141c9bdc1bdcd85b08185b1c9958591e48195e1958dd5d1959603a1b60448201526064016103e6565b336000908152600b602052604090205460ff16156108bd5760405162461bcd60e51b815260206004820152600d60248201526c105b1c9958591e481d9bdd1959609a1b60448201526064016103e6565b60085463ffffffff164210156109155760405162461bcd60e51b815260206004820152601a60248201527f566f74696e6720686173206e6f7420737461727465642079657400000000000060448201526064016103e6565b600854640100000000900463ffffffff164211156109685760405162461bcd60e51b815260206004820152601060248201526f159bdd1a5b99c81a185cc8195b99195960821b60448201526064016103e6565b600061097333610dea565b9050600081116109b75760405162461bcd60e51b815260206004820152600f60248201526e2737903b37ba34b733903837bbb2b960891b60448201526064016103e6565b8160ff166001036109df5780600560008282546109d49190611078565b90915550610a5b9050565b8160ff166002036109fc5780600660008282546109d49190611078565b8160ff16600303610a195780600760008282546109d49190611078565b60408051631c7efab360e21b81526004810191909152600b60448201526a31206f722032206f72203360a81b606482015260ff831660248201526084016103e6565b336000908152600b6020908152604091829020805460ff1916600117905560095482516351ed635760e11b815292516001600160a01b03919091169263a3dac6ae9260048083019391928290030181865afa158015610abe573d6000803e3d6000fd5b505050506040513d601f19601f82011682018060405250810190610ae29190611040565b15610c075760095460408051630297f9af60e41b815290516000926001600160a01b03169163297f9af09160048083019260209291908290030181865afa158015610b31573d6000803e3d6000fd5b505050506040513d601f19601f82011682018060405250810190610b559190611091565b90506000816005546064610b6991906110aa565b610b7391906110c1565b600854909150600160501b900460ff168110610bf357600854600160681b900460ff1680610bb15750600854640100000000900463ffffffff164210155b8015610bc05750600654600554115b6008805464ff000000ff60401b1916600160601b9215159290920260ff60401b191691909117600160411b179055610c01565b6008805460ff60601b191690555b50505050565b600254604080516318160ddd60e01b815290516000926001600160a01b0316916318160ddd9160048083019260209291908290030181865afa158015610c51573d6000803e3d6000fd5b505050506040513d601f19601f82011682018060405250810190610c759190611091565b905060008111610cd65760405162461bcd60e51b815260206004820152602660248201527f546f74616c20737570706c79206d7573742062652067726561746572207468616044820152656e207a65726f60d01b60648201526084016103e6565b6000600754600654600554610ceb9190611078565b610cf59190611078565b9050600082610d058360646110aa565b610d0f91906110c1565b90506000826005546064610d2391906110aa565b610d2d91906110c1565b600854909150600160501b900460ff168110801590610d585750600854600160481b900460ff168210155b15610dc757600854600160681b900460ff1680610d855750600854640100000000900463ffffffff164210155b8015610d945750600654600554115b6008805464ff000000ff60401b1916600160601b9215159290920260ff60401b191691909117600160411b179055610dd5565b6008805460ff60601b191690555b505050505050565b6003805461031390610fd4565b600954604080516351ed635760e11b815290516000926001600160a01b03169163a3dac6ae9160048083019260209291908290030181865afa158015610e34573d6000803e3d6000fd5b505050506040513d601f19601f82011682018060405250810190610e589190611040565b15610e6557506001919050565b6002546040516370a0823160e01b81526001600160a01b0384811660048301529091169081906370a0823190602401602060405180830381865afa158015610eb1573d6000803e3d6000fd5b505050506040513d601f19601f82011682018060405250810190610ed59190611091565b9392505050565b600060208284031215610eee57600080fd5b81356001600160a01b0381168114610ed557600080fd5b60005b83811015610f20578181015183820152602001610f08565b50506000910152565b60008151808452610f41816020860160208601610f05565b601f01601f19169290920160200192915050565b602081526000610ed56020830184610f29565b600060208284031215610f7a57600080fd5b5035919050565b60018060a01b0384168152826020820152606060408201526000610fa86060830184610f29565b95945050505050565b600060208284031215610fc357600080fd5b813560ff81168114610ed557600080fd5b600181811c90821680610fe857607f821691505b60208210810361100857634e487b7160e01b600052602260045260246000fd5b50919050565b634e487b7160e01b600052603260045260246000fd5b60008251611036818460208701610f05565b9190910192915050565b60006020828403121561105257600080fd5b81518015158114610ed557600080fd5b634e487b7160e01b600052601160045260246000fd5b8082018082111561108b5761108b611062565b92915050565b6000602082840312156110a357600080fd5b5051919050565b808202811582820484141761108b5761108b611062565b6000826110de57634e487b7160e01b600052601260045260246000fd5b50049056fea2646970667358221220ea11331b52399f8202c0a48beef0d92cc4c6b6777a53e13750d07b72cb53086f64736f6c634300081b0033",
  "linkReferences": {},
  "deployedLinkReferences": {}
}