{
  "_format": "hh-sol-artifact-1",
  "contractName": "DAO",
  "sourceName": "contracts/Dao.sol",
  "abi": [
    {
      "inputs": [
        {
          "internalType": "address",
          "name": "_governanceTokenAddress",
          "type": "address"
        },
        {
          "internalType": "uint8",
          "name": "_minimumParticipationPercentage",
          "type": "uint8"
        },
        {
          "internalType": "uint8",
          "name": "_supportThresholdPercentage",
          "type": "uint8"
        },
        {
          "internalType": "uint32",
          "name": "_minimumDurationForProposal",
          "type": "uint32"
        },
        {
          "internalType": "bool",
          "name": "_earlyExecution",
          "type": "bool"
        },
        {
          "internalType": "bool",
          "name": "_canVoteChange",
          "type": "bool"
        },
        {
          "components": [
            {
              "internalType": "address",
              "name": "memberAddress",
              "type": "address"
            },
            {
              "internalType": "uint256",
              "name": "deposit",
              "type": "uint256"
            }
          ],
          "internalType": "struct IDAO.DAOMember[]",
          "name": "_daoMembers",
          "type": "tuple[]"
        },
        {
          "internalType": "bool",
          "name": "_isMultiSignDAO",
          "type": "bool"
        }
      ],
      "stateMutability": "nonpayable",
      "type": "constructor"
    },
    {
      "inputs": [],
      "name": "DAOBlacklistedAddress",
      "type": "error"
    },
    {
      "inputs": [],
      "name": "DAOInsufficientAllowanceGovernanceToken",
      "type": "error"
    },
    {
      "inputs": [],
      "name": "DAOInsufficientBalance",
      "type": "error"
    },
    {
      "inputs": [],
      "name": "DAOInvalidAmount",
      "type": "error"
    },
    {
      "inputs": [],
      "name": "DAONotADaoMember",
      "type": "error"
    },
    {
      "inputs": [],
      "name": "DAOUnAuthorizedInteraction",
      "type": "error"
    },
    {
      "inputs": [
        {
          "internalType": "uint256",
          "name": "expected",
          "type": "uint256"
        },
        {
          "internalType": "uint256",
          "name": "actual",
          "type": "uint256"
        }
      ],
      "name": "DepositsMisMatch",
      "type": "error"
    },
    {
      "inputs": [],
      "name": "ReentrancyGuardReentrantCall",
      "type": "error"
    },
    {
      "inputs": [],
      "name": "DaoCreator",
      "outputs": [
        {
          "internalType": "address",
          "name": "",
          "type": "address"
        }
      ],
      "stateMutability": "view",
      "type": "function"
    },
    {
      "inputs": [
        {
          "components": [
            {
              "internalType": "address",
              "name": "memberAddress",
              "type": "address"
            },
            {
              "internalType": "uint256",
              "name": "deposit",
              "type": "uint256"
            }
          ],
          "internalType": "struct IDAO.DAOMember[]",
          "name": "members",
          "type": "tuple[]"
        }
      ],
      "name": "addDAOMembers",
      "outputs": [],
      "stateMutability": "nonpayable",
      "type": "function"
    },
    {
      "inputs": [
        {
          "internalType": "address",
          "name": "",
          "type": "address"
        }
      ],
      "name": "blacklisted",
      "outputs": [
        {
          "internalType": "bool",
          "name": "",
          "type": "bool"
        }
      ],
      "stateMutability": "view",
      "type": "function"
    },
    {
      "inputs": [
        {
          "internalType": "address",
          "name": "_account",
          "type": "address"
        }
      ],
      "name": "canInteract",
      "outputs": [
        {
          "internalType": "bool",
          "name": "",
          "type": "bool"
        }
      ],
      "stateMutability": "view",
      "type": "function"
    },
    {
      "inputs": [],
      "name": "canVoteChange",
      "outputs": [
        {
          "internalType": "bool",
          "name": "",
          "type": "bool"
        }
      ],
      "stateMutability": "view",
      "type": "function"
    },
    {
      "inputs": [
        {
          "internalType": "string",
          "name": "_title",
          "type": "string"
        },
        {
          "internalType": "string",
          "name": "_description",
          "type": "string"
        },
        {
          "internalType": "uint32",
          "name": "_startTime",
          "type": "uint32"
        },
        {
          "internalType": "uint32",
          "name": "_duration",
          "type": "uint32"
        },
        {
          "internalType": "uint8",
          "name": "_actionId",
          "type": "uint8"
        },
        {
          "components": [
            {
              "internalType": "address",
              "name": "to",
              "type": "address"
            },
            {
              "internalType": "uint256",
              "name": "value",
              "type": "uint256"
            },
            {
              "internalType": "bytes",
              "name": "data",
              "type": "bytes"
            }
          ],
          "internalType": "struct IProposal.Action[]",
          "name": "_actions",
          "type": "tuple[]"
        }
      ],
      "name": "createProposal",
      "outputs": [
        {
          "internalType": "address",
          "name": "",
          "type": "address"
        }
      ],
      "stateMutability": "nonpayable",
      "type": "function"
    },
    {
      "inputs": [
        {
          "internalType": "uint256",
          "name": "_amount",
          "type": "uint256"
        }
      ],
      "name": "depositToDAOTreasury",
      "outputs": [],
      "stateMutability": "payable",
      "type": "function"
    },
    {
      "inputs": [
        {
          "internalType": "uint256",
          "name": "_amount",
          "type": "uint256"
        }
      ],
      "name": "depositTokens",
      "outputs": [],
      "stateMutability": "nonpayable",
      "type": "function"
    },
    {
      "inputs": [],
      "name": "earlyExecution",
      "outputs": [
        {
          "internalType": "bool",
          "name": "",
          "type": "bool"
        }
      ],
      "stateMutability": "view",
      "type": "function"
    },
    {
      "inputs": [],
      "name": "getAllProposals",
      "outputs": [
        {
          "components": [
            {
              "internalType": "address",
              "name": "deployedProposalAddress",
              "type": "address"
            },
            {
              "internalType": "address",
              "name": "creator",
              "type": "address"
            },
            {
              "internalType": "string",
              "name": "title",
              "type": "string"
            },
            {
              "internalType": "uint256",
              "name": "id",
              "type": "uint256"
            }
          ],
          "internalType": "struct IDAO.ProposalInfo[]",
          "name": "",
          "type": "tuple[]"
        }
      ],
      "stateMutability": "view",
      "type": "function"
    },
    {
      "inputs": [],
      "name": "getDAOTreasuryBalance",
      "outputs": [
        {
          "internalType": "uint256",
          "name": "",
          "type": "uint256"
        }
      ],
      "stateMutability": "view",
      "type": "function"
    },
    {
      "inputs": [
        {
          "internalType": "uint256",
          "name": "_proposalId",
          "type": "uint256"
        }
      ],
      "name": "getProposalInfo",
      "outputs": [
        {
          "components": [
            {
              "internalType": "address",
              "name": "deployedProposalAddress",
              "type": "address"
            },
            {
              "internalType": "address",
              "name": "creator",
              "type": "address"
            },
            {
              "internalType": "string",
              "name": "title",
              "type": "string"
            },
            {
              "internalType": "uint256",
              "name": "id",
              "type": "uint256"
            }
          ],
          "internalType": "struct IDAO.ProposalInfo",
          "name": "",
          "type": "tuple"
        }
      ],
      "stateMutability": "view",
      "type": "function"
    },
    {
      "inputs": [],
      "name": "governanceTokenAddress",
      "outputs": [
        {
          "internalType": "address",
          "name": "",
          "type": "address"
        }
      ],
      "stateMutability": "view",
      "type": "function"
    },
    {
      "inputs": [
        {
          "internalType": "address",
          "name": "",
          "type": "address"
        }
      ],
      "name": "isDAOMember",
      "outputs": [
        {
          "internalType": "bool",
          "name": "",
          "type": "bool"
        }
      ],
      "stateMutability": "view",
      "type": "function"
    },
    {
      "inputs": [],
      "name": "isMultiSignDAO",
      "outputs": [
        {
          "internalType": "bool",
          "name": "",
          "type": "bool"
        }
      ],
      "stateMutability": "view",
      "type": "function"
    },
    {
      "inputs": [
        {
          "internalType": "address",
          "name": "",
          "type": "address"
        }
      ],
      "name": "isProposal",
      "outputs": [
        {
          "internalType": "bool",
          "name": "",
          "type": "bool"
        }
      ],
      "stateMutability": "view",
      "type": "function"
    },
    {
      "inputs": [],
      "name": "membersCount",
      "outputs": [
        {
          "internalType": "uint256",
          "name": "",
          "type": "uint256"
        }
      ],
      "stateMutability": "view",
      "type": "function"
    },
    {
      "inputs": [],
      "name": "minimumDuration",
      "outputs": [
        {
          "internalType": "uint256",
          "name": "",
          "type": "uint256"
        }
      ],
      "stateMutability": "view",
      "type": "function"
    },
    {
      "inputs": [],
      "name": "minimumParticipationPercentage",
      "outputs": [
        {
          "internalType": "uint8",
          "name": "",
          "type": "uint8"
        }
      ],
      "stateMutability": "view",
      "type": "function"
    },
    {
      "inputs": [],
      "name": "proposalId",
      "outputs": [
        {
          "internalType": "uint256",
          "name": "",
          "type": "uint256"
        }
      ],
      "stateMutability": "view",
      "type": "function"
    },
    {
      "inputs": [
        {
          "internalType": "uint256",
          "name": "",
          "type": "uint256"
        }
      ],
      "name": "proposals",
      "outputs": [
        {
          "internalType": "address",
          "name": "deployedProposalAddress",
          "type": "address"
        },
        {
          "internalType": "address",
          "name": "creator",
          "type": "address"
        },
        {
          "internalType": "string",
          "name": "title",
          "type": "string"
        },
        {
          "internalType": "uint256",
          "name": "id",
          "type": "uint256"
        }
      ],
      "stateMutability": "view",
      "type": "function"
    },
    {
      "inputs": [
        {
          "internalType": "address",
          "name": "_account",
          "type": "address"
        }
      ],
      "name": "setToBlacklist",
      "outputs": [],
      "stateMutability": "nonpayable",
      "type": "function"
    },
    {
      "inputs": [
        {
          "internalType": "address",
          "name": "_account",
          "type": "address"
        }
      ],
      "name": "setToUnBlacklist",
      "outputs": [],
      "stateMutability": "nonpayable",
      "type": "function"
    },
    {
      "inputs": [],
      "name": "supportThresholdPercentage",
      "outputs": [
        {
          "internalType": "uint8",
          "name": "",
          "type": "uint8"
        }
      ],
      "stateMutability": "view",
      "type": "function"
    },
    {
      "inputs": [
        {
          "internalType": "address",
          "name": "",
          "type": "address"
        }
      ],
      "name": "tokenDeposited",
      "outputs": [
        {
          "internalType": "uint256",
          "name": "",
          "type": "uint256"
        }
      ],
      "stateMutability": "view",
      "type": "function"
    },
    {
      "inputs": [
        {
          "internalType": "address",
          "name": "",
          "type": "address"
        }
      ],
      "name": "treasuryBalance",
      "outputs": [
        {
          "internalType": "uint256",
          "name": "",
          "type": "uint256"
        }
      ],
      "stateMutability": "view",
      "type": "function"
    },
    {
      "inputs": [
        {
          "internalType": "uint256",
          "name": "amount",
          "type": "uint256"
        }
      ],
      "name": "withdrawFromDAOTreasury",
      "outputs": [],
      "stateMutability": "nonpayable",
      "type": "function"
    },
    {
      "inputs": [
        {
          "internalType": "address",
          "name": "_to",
          "type": "address"
        },
        {
          "internalType": "uint256",
          "name": "_amount",
          "type": "uint256"
        }
      ],
      "name": "withdrawTokens",
      "outputs": [],
      "stateMutability": "nonpayable",
      "type": "function"
    }
  ],
  "bytecode": "0x60c060405234801561001057600080fd5b50604051613c15380380613c1583398101604081905261002f91610373565b600160008190556001600160a01b038916608052805460ff89811661ffff1992831617610100918a1682021790925563ffffffff87166002556003805490911661ff001987151516178515159092029190911762ff0000191662010000831515021790553360a05261009f6100b5565b6100a882610114565b5050505050505050610510565b60805160405163965afa8960e01b81523060048201526001600160a01b0382169063965afa8990602401600060405180830381600087803b1580156100f957600080fd5b505af115801561010d573d6000803e3d6000fd5b5050505050565b61011c61026a565b61013957604051632c972a5f60e01b815260040160405180910390fd5b60805160005b825181101561026557600083828151811061015c5761015c6104d3565b6020026020010151600001519050600084838151811061017e5761017e6104d3565b6020908102919091018101518101516001600160a01b0384166000908152600990925260409091205490915060ff1661025b576001600160a01b0382166000908152600960205260408120805460ff19166001179055600580549091906101e4906104e9565b9091555060035462010000900460ff1661025b576040516373a1403560e11b81526001600160a01b0383811660048301526024820183905285169063e742806a90604401600060405180830381600087803b15801561024257600080fd5b505af1158015610256573d6000803e3d6000fd5b505050505b505060010161013f565b505050565b3360008181526008602052604081205490919060ff161561029e5760405163c8e5275b60e01b815260040160405180910390fd5b6005546000036102b057600191505090565b50503360009081526009602052604090205460ff1690565b80516001600160a01b03811681146102df57600080fd5b919050565b805160ff811681146102df57600080fd5b805180151581146102df57600080fd5b634e487b7160e01b600052604160045260246000fd5b604080519081016001600160401b038111828210171561033d5761033d610305565b60405290565b604051601f8201601f191681016001600160401b038111828210171561036b5761036b610305565b604052919050565b600080600080600080600080610100898b03121561039057600080fd5b610399896102c8565b97506103a760208a016102e4565b96506103b560408a016102e4565b9550606089015163ffffffff811681146103ce57600080fd5b94506103dc60808a016102f5565b93506103ea60a08a016102f5565b60c08a01519093506001600160401b0381111561040657600080fd5b8901601f81018b1361041757600080fd5b80516001600160401b0381111561043057610430610305565b61043f60208260051b01610343565b8082825260208201915060208360061b85010192508d83111561046157600080fd5b6020840193505b828410156104b2576040848f03121561048057600080fd5b61048861031b565b610491856102c8565b81526020850151602082015280835250602082019150604084019350610468565b94506104c49250505060e08a016102f5565b90509295985092959890939650565b634e487b7160e01b600052603260045260246000fd5b60006001820161050957634e487b7160e01b600052601160045260246000fd5b5060010190565b60805160a0516136bd61055860003960006102fb015260008181610487015281816107a301528181610ba901528181610fe20152818161118201526114aa01526136bd6000f3fe6080604052600436106101b75760003560e01c8063a3dac6ae116100ec578063cceb68f51161008a578063dd49756e11610064578063dd49756e14610568578063e987194f14610588578063edb7438c146105a7578063fe436c53146105ba57600080fd5b8063cceb68f5146104f6578063d6b6b21414610518578063dbac26e91461053857600080fd5b8063b1e44d8f116100c6578063b1e44d8f14610445578063b42165d014610475578063b9183515146104a9578063bc903cb8146104c957600080fd5b8063a3dac6ae146103d8578063a89ab8f4146103f8578063af4c68381461041857600080fd5b80633e3ee5a2116101595780635205000311610133578063520500031461033557806354445ae61461036557806360f8abb9146103925780637e7b1d42146103be57600080fd5b80633e3ee5a2146102b35780634679bf4d146102c95780634ab17f31146102e957600080fd5b806306b091f91161019557806306b091f9146102395780630a38e3ff14610259578063297f9af0146102795780632dfca4451461029d57600080fd5b8063013cf08b146101bc57806303a7ec24146101f557806305074f111461020a575b600080fd5b3480156101c857600080fd5b506101dc6101d7366004611554565b6105da565b6040516101ec94939291906115b3565b60405180910390f35b610208610203366004611554565b610698565b005b34801561021657600080fd5b5060035461022990610100900460ff1681565b60405190151581526020016101ec565b34801561024557600080fd5b5061020861025436600461160c565b610786565b34801561026557600080fd5b50610208610274366004611636565b610944565b34801561028557600080fd5b5061028f60055481565b6040519081526020016101ec565b3480156102a957600080fd5b5061028f60045481565b3480156102bf57600080fd5b5061028f60025481565b3480156102d557600080fd5b506102086102e4366004611554565b6109d0565b3480156102f557600080fd5b5061031d7f000000000000000000000000000000000000000000000000000000000000000081565b6040516001600160a01b0390911681526020016101ec565b34801561034157600080fd5b50610229610350366004611636565b600b6020526000908152604090205460ff1681565b34801561037157600080fd5b5061028f610380366004611636565b60066020526000908152604090205481565b34801561039e57600080fd5b506001546103ac9060ff1681565b60405160ff90911681526020016101ec565b3480156103ca57600080fd5b506003546102299060ff1681565b3480156103e457600080fd5b506003546102299062010000900460ff1681565b34801561040457600080fd5b50610208610413366004611636565b610af3565b34801561042457600080fd5b5061028f610433366004611636565b600a6020526000908152604090205481565b34801561045157600080fd5b50610229610460366004611636565b60096020526000908152604090205460ff1681565b34801561048157600080fd5b5061031d7f000000000000000000000000000000000000000000000000000000000000000081565b3480156104b557600080fd5b506102086104c436600461170b565b610b82565b3480156104d557600080fd5b506104e96104e4366004611554565b610cf1565b6040516101ec919061181f565b34801561050257600080fd5b5061050b610dd9565b6040516101ec9190611832565b34801561052457600080fd5b5061031d610533366004611a1e565b610f46565b34801561054457600080fd5b50610229610553366004611636565b60086020526000908152604090205460ff1681565b34801561057457600080fd5b50610208610583366004611554565b61116d565b34801561059457600080fd5b506001546103ac90610100900460ff1681565b3480156105b357600080fd5b504761028f565b3480156105c657600080fd5b506102296105d5366004611636565b611385565b6007602052600090815260409020805460018201546002830180546001600160a01b0393841694929093169261060f90611ae8565b80601f016020809104026020016040519081016040528092919081815260200182805461063b90611ae8565b80156106885780601f1061065d57610100808354040283529160200191610688565b820191906000526020600020905b81548152906001019060200180831161066b57829003601f168201915b5050505050908060030154905084565b3360008181526009602052604090205460ff166106c857604051632c972a5f60e01b815260040160405180910390fd5b6001600160a01b03811660009081526008602052604090205460ff16156107025760405163c8e5275b60e01b815260040160405180910390fd5b8134146107305760405163affd0c1b60e01b8152600481018390523460248201526044015b60405180910390fd5b336000908152600660205260408120805484929061074f908490611b32565b9091555050604051339083156108fc029084906000818181858888f19350505050158015610781573d6000803e3d6000fd5b505050565b61078e611403565b6040516370a0823160e01b81523060048201527f0000000000000000000000000000000000000000000000000000000000000000906000906001600160a01b038316906370a0823190602401602060405180830381865afa1580156107f7573d6000803e3d6000fd5b505050506040513d601f19601f8201168201806040525081019061081b9190611b4b565b6001600160a01b0385166000908152600a60205260409020549091508381101561087c5760405162461bcd60e51b81526020600482015260126024820152716e6f7420656e6f7567682062616c616e636560701b6044820152606401610727565b80821015801561088c5750818411155b15610933576001600160a01b0385166000908152600a6020526040812080548692906108b9908490611b32565b909155505060405163a9059cbb60e01b81526001600160a01b0386811660048301526024820186905284169063a9059cbb906044016020604051808303816000875af115801561090d573d6000803e3d6000fd5b505050506040513d601f19601f820116820180604052508101906109319190611b64565b505b5050506109406001600055565b5050565b3360008181526009602052604090205460ff1661097457604051632c972a5f60e01b815260040160405180910390fd5b6001600160a01b03811660009081526008602052604090205460ff16156109ae5760405163c8e5275b60e01b815260040160405180910390fd5b506001600160a01b03166000908152600860205260409020805460ff19169055565b6109d8611403565b3360008181526009602052604090205460ff16610a0857604051632c972a5f60e01b815260040160405180910390fd5b6001600160a01b03811660009081526008602052604090205460ff1615610a425760405163c8e5275b60e01b815260040160405180910390fd5b60008211610a635760405163e41a647160e01b815260040160405180910390fd5b33600090815260066020526040902054821115610a93576040516304dd7ef960e41b815260040160405180910390fd5b3360009081526006602052604081208054849290610ab2908490611b32565b9091555050604051339083156108fc029084906000818181858888f19350505050158015610ae4573d6000803e3d6000fd5b5050610af06001600055565b50565b3360008181526009602052604090205460ff16610b2357604051632c972a5f60e01b815260040160405180910390fd5b6001600160a01b03811660009081526008602052604090205460ff1615610b5d5760405163c8e5275b60e01b815260040160405180910390fd5b506001600160a01b03166000908152600860205260409020805460ff19166001179055565b610b8a61142d565b610ba757604051632c972a5f60e01b815260040160405180910390fd5b7f000000000000000000000000000000000000000000000000000000000000000060005b8251811015610781576000838281518110610be857610be8611b86565b60200260200101516000015190506000848381518110610c0a57610c0a611b86565b6020908102919091018101518101516001600160a01b0384166000908152600990925260409091205490915060ff16610ce7576001600160a01b0382166000908152600960205260408120805460ff1916600117905560058054909190610c7090611b9c565b9091555060035462010000900460ff16610ce7576040516373a1403560e11b81526001600160a01b0383811660048301526024820183905285169063e742806a90604401600060405180830381600087803b158015610cce57600080fd5b505af1158015610ce2573d6000803e3d6000fd5b505050505b5050600101610bcb565b610cf961150d565b600082815260076020908152604091829020825160808101845281546001600160a01b039081168252600183015416928101929092526002810180549293919291840191610d4690611ae8565b80601f0160208091040260200160405190810160405280929190818152602001828054610d7290611ae8565b8015610dbf5780601f10610d9457610100808354040283529160200191610dbf565b820191906000526020600020905b815481529060010190602001808311610da257829003601f168201915b505050505081526020016003820154815250509050919050565b606060006004546001600160401b03811115610df757610df7611658565b604051908082528060200260200182016040528015610e3057816020015b610e1d61150d565b815260200190600190039081610e155790505b50905060005b600454811015610f4057600081815260076020908152604091829020825160808101845281546001600160a01b03908116825260018301541692810192909252600281018054919384929084019190610e8e90611ae8565b80601f0160208091040260200160405190810160405280929190818152602001828054610eba90611ae8565b8015610f075780601f10610edc57610100808354040283529160200191610f07565b820191906000526020600020905b815481529060010190602001808311610eea57829003601f168201915b50505050508152602001600382015481525050838381518110610f2c57610f2c611b86565b602090810291909101015250600101610e36565b50919050565b3360008181526009602052604081205490919060ff16610f7957604051632c972a5f60e01b815260040160405180910390fd5b6001600160a01b03811660009081526008602052604090205460ff1615610fb35760405163c8e5275b60e01b815260040160405180910390fd5b600460008154610fc290611b9c565b90915550600154600354604051600092309233928d928d928d928d928c927f00000000000000000000000000000000000000000000000000000000000000009260ff808416936101009004811692169061101b90611547565b61102f9b9a99989796959493929190611c3b565b604051809103906000f08015801561104b573d6000803e3d6000fd5b50604080516080810182526001600160a01b0380841682523360208084019182528385018f81526004546060860181905260009081526007909252949020835181549084166001600160a01b031991821617825591516001820180549190941692169190911790915591519293509160028201906110c99082611d2e565b50606091909101516003909101556001600160a01b0381166000908152600b60205260409020805460ff19166001179055600460ff168560ff16116111455760008560ff16600481111561111f5761111f611dec565b9050600081600481111561113557611135611dec565b03611143576111438261148b565b505b50506004546000908152600760205260409020546001600160a01b0316979650505050505050565b6040516370a0823160e01b81523360048201527f0000000000000000000000000000000000000000000000000000000000000000906000906001600160a01b038316906370a0823190602401602060405180830381865afa1580156111d6573d6000803e3d6000fd5b505050506040513d601f19601f820116820180604052508101906111fa9190611b4b565b604051636eb1769f60e11b81523360048201523060248201529091506000906001600160a01b0384169063dd62ed3e90604401602060405180830381865afa15801561124a573d6000803e3d6000fd5b505050506040513d601f19601f8201168201806040525081019061126e9190611b4b565b905083811015611291576040516349ab02a560e11b815260040160405180910390fd5b83821061137f57336000908152600a6020526040812080548692906112b7908490611e02565b90915550506040516323b872dd60e01b8152336004820152306024820152604481018590526000906001600160a01b038516906323b872dd906064016020604051808303816000875af1158015611312573d6000803e3d6000fd5b505050506040513d601f19601f820116820180604052508101906113369190611b64565b90508061137d5760405162461bcd60e51b8152602060048201526015602482015274151bdad95b881d1c985b9cd9995c8819985a5b1959605a1b6044820152606401610727565b505b50505050565b6001600160a01b038116600090815260096020526040812054829060ff166113c057604051632c972a5f60e01b815260040160405180910390fd5b6001600160a01b03811660009081526008602052604090205460ff16156113fa5760405163c8e5275b60e01b815260040160405180910390fd5b50600192915050565b60026000540361142657604051633ee5aeb560e01b815260040160405180910390fd5b6002600055565b3360008181526008602052604081205490919060ff16156114615760405163c8e5275b60e01b815260040160405180910390fd5b60055460000361147357600191505090565b50503360009081526009602052604090205460ff1690565b60405163a84b01f160e01b81526001600160a01b0382811660048301527f0000000000000000000000000000000000000000000000000000000000000000919082169063a84b01f190602401600060405180830381600087803b1580156114f157600080fd5b505af1158015611505573d6000803e3d6000fd5b505050505050565b604051806080016040528060006001600160a01b0316815260200160006001600160a01b0316815260200160608152602001600081525090565b61187280611e1683390190565b60006020828403121561156657600080fd5b5035919050565b6000815180845260005b8181101561159357602081850181015186830182015201611577565b506000602082860101526020601f19601f83011685010191505092915050565b6001600160a01b038581168252841660208201526080604082018190526000906115df9083018561156d565b905082606083015295945050505050565b80356001600160a01b038116811461160757600080fd5b919050565b6000806040838503121561161f57600080fd5b611628836115f0565b946020939093013593505050565b60006020828403121561164857600080fd5b611651826115f0565b9392505050565b634e487b7160e01b600052604160045260246000fd5b604080519081016001600160401b038111828210171561169057611690611658565b60405290565b604051606081016001600160401b038111828210171561169057611690611658565b604051601f8201601f191681016001600160401b03811182821017156116e0576116e0611658565b604052919050565b60006001600160401b0382111561170157611701611658565b5060051b60200190565b60006020828403121561171d57600080fd5b81356001600160401b0381111561173357600080fd5b8201601f8101841361174457600080fd5b8035611757611752826116e8565b6116b8565b8082825260208201915060208360061b85010192508683111561177957600080fd5b6020840193505b828410156117c8576040848803121561179857600080fd5b6117a061166e565b6117a9856115f0565b8152602085810135818301529083526040909401939190910190611780565b9695505050505050565b60018060a01b03815116825260018060a01b036020820151166020830152600060408201516080604085015261180b608085018261156d565b606093840151949093019390935250919050565b60208152600061165160208301846117d2565b6000602082016020835280845180835260408501915060408160051b86010192506020860160005b8281101561188b57603f198786030184526118768583516117d2565b9450602093840193919091019060010161185a565b50929695505050505050565b6000806001600160401b038411156118b1576118b1611658565b50601f8301601f19166020016118c6816116b8565b9150508281528383830111156118db57600080fd5b828260208301376000602084830101529392505050565b600082601f83011261190357600080fd5b61165183833560208501611897565b803563ffffffff8116811461160757600080fd5b600082601f83011261193757600080fd5b8135611945611752826116e8565b8082825260208201915060208360051b86010192508583111561196757600080fd5b602085015b83811015611a145780356001600160401b0381111561198a57600080fd5b86016060818903601f190112156119a057600080fd5b6119a8611696565b6119b4602083016115f0565b81526040820135602082015260608201356001600160401b038111156119d957600080fd5b60208184010192505088601f8301126119f157600080fd5b611a0089833560208501611897565b60408201528452506020928301920161196c565b5095945050505050565b60008060008060008060c08789031215611a3757600080fd5b86356001600160401b03811115611a4d57600080fd5b611a5989828a016118f2565b96505060208701356001600160401b03811115611a7557600080fd5b611a8189828a016118f2565b955050611a9060408801611912565b9350611a9e60608801611912565b9250608087013560ff81168114611ab457600080fd5b915060a08701356001600160401b03811115611acf57600080fd5b611adb89828a01611926565b9150509295509295509295565b600181811c90821680611afc57607f821691505b602082108103610f4057634e487b7160e01b600052602260045260246000fd5b634e487b7160e01b600052601160045260246000fd5b81810381811115611b4557611b45611b1c565b92915050565b600060208284031215611b5d57600080fd5b5051919050565b600060208284031215611b7657600080fd5b8151801515811461165157600080fd5b634e487b7160e01b600052603260045260246000fd5b600060018201611bae57611bae611b1c565b5060010190565b600082825180855260208501945060208160051b8301016020850160005b83811015611c2f57848303601f19018852815180516001600160a01b0316845260208082015190850152604090810151606091850182905290611c189085018261156d565b6020998a0199909450929092019150600101611bd3565b50909695505050505050565b6001600160a01b038c811682528b16602082015261016060408201819052600090611c689083018c61156d565b8281036060840152611c7a818c61156d565b63ffffffff8b811660808601528a1660a0850152905082810360c0840152611ca28189611bb5565b915050611cba60e08301876001600160a01b03169052565b60ff851661010083015260ff84166101208301528215156101408301529c9b505050505050505050505050565b601f82111561078157806000526020600020601f840160051c81016020851015611d0e5750805b601f840160051c820191505b8181101561137d5760008155600101611d1a565b81516001600160401b03811115611d4757611d47611658565b611d5b81611d558454611ae8565b84611ce7565b6020601f821160018114611d8f5760008315611d775750848201515b600019600385901b1c1916600184901b17845561137d565b600084815260208120601f198516915b82811015611dbf5787850151825560209485019460019092019101611d9f565b5084821015611ddd5786840151600019600387901b60f8161c191681555b50505050600190811b01905550565b634e487b7160e01b600052602160045260246000fd5b80820180821115611b4557611b45611b1c56fe608060405234801561001057600080fd5b5060405161187238038061187283398101604081905261002f91610478565b600080546001600160a01b03199081166001600160a01b038e8116918217909355600980548316909117905560018054909116918c1691909117905560036100778a8261061f565b506004610084898261061f565b506008805463ffffffff191663ffffffff89169081179091556100a89087906106f3565b60088054600280546001600160a01b0319166001600160a01b0389161790556801000000000000000065ff00ffffffff60201b1990911664010000000063ffffffff949094169390930260ff60481b191692909217690100000000000000000060ff878116919091029190911763ff0000ff60501b19166a01000000000000000000009186169190910260ff60681b1916176d0100000000000000000000000000841515021760ff60401b191691909117905560005b85518160ff1610156101f957600a868260ff168151811061018157610181610715565b602090810291909101810151825460018082018555600094855293839020825160039092020180546001600160a01b0319166001600160a01b039092169190911781559181015192820192909255604082015160028201906101e3908261061f565b50505080806101f19061072b565b91505061015e565b50505050505050505050505061074a565b80516001600160a01b038116811461022157600080fd5b919050565b634e487b7160e01b600052604160045260246000fd5b604051606081016001600160401b038111828210171561025e5761025e610226565b60405290565b604051601f8201601f191681016001600160401b038111828210171561028c5761028c610226565b604052919050565b6000806001600160401b038411156102ae576102ae610226565b50601f8301601f19166020016102c381610264565b9150508281528383830111156102d857600080fd5b60005b838110156102f95780830151602082840101526020810190506102db565b506000602084830101529392505050565b600082601f83011261031b57600080fd5b61032a83835160208501610294565b9392505050565b805163ffffffff8116811461022157600080fd5b600082601f83011261035657600080fd5b81516001600160401b0381111561036f5761036f610226565b8060051b61037f60208201610264565b9182526020818501810192908101908684111561039b57600080fd5b6020860192505b8383101561044d5782516001600160401b038111156103c057600080fd5b86016060818903601f190112156103d657600080fd5b6103de61023c565b6103ea6020830161020a565b81526040820151602082015260608201516001600160401b0381111561040f57600080fd5b60208184010192505088601f83011261042757600080fd5b61043689835160208501610294565b6040820152835250602092830192909101906103a2565b9695505050505050565b805160ff8116811461022157600080fd5b8051801515811461022157600080fd5b60008060008060008060008060008060006101608c8e03121561049a57600080fd5b6104a38c61020a565b9a506104b160208d0161020a565b60408d0151909a506001600160401b038111156104cd57600080fd5b6104d98e828f0161030a565b60608e0151909a5090506001600160401b038111156104f757600080fd5b6105038e828f0161030a565b98505061051260808d01610331565b965061052060a08d01610331565b60c08d01519096506001600160401b0381111561053c57600080fd5b6105488e828f01610345565b95505061055760e08d0161020a565b93506105666101008d01610457565b92506105756101208d01610457565b91506105846101408d01610468565b90509295989b509295989b9093969950565b600181811c908216806105aa57607f821691505b6020821081036105ca57634e487b7160e01b600052602260045260246000fd5b50919050565b601f82111561061a57806000526020600020601f840160051c810160208510156105f75750805b601f840160051c820191505b818110156106175760008155600101610603565b50505b505050565b81516001600160401b0381111561063857610638610226565b61064c816106468454610596565b846105d0565b6020601f82116001811461068057600083156106685750848201515b600019600385901b1c1916600184901b178455610617565b600084815260208120601f198516915b828110156106b05787850151825560209485019460019092019101610690565b50848210156106ce5786840151600019600387901b60f8161c191681555b50505050600190811b01905550565b634e487b7160e01b600052601160045260246000fd5b63ffffffff818116838216019081111561070f5761070f6106dd565b92915050565b634e487b7160e01b600052603260045260246000fd5b600060ff821660ff8103610741576107416106dd565b60010192915050565b611119806107596000396000f3fe608060405234801561001057600080fd5b506004361061012c5760003560e01c806378e97925116100ad578063b5b47f4211610071578063b5b47f42146102c5578063e5045752146102ce578063e927fc5c146102d6578063e987194f146102e9578063fb286c65146102fd57600080fd5b806378e97925146102595780637e7b1d421461026957806383240f831461027d578063b3f98adc1461029f578063b42165d0146102b257600080fd5b806331a38c89116100f457806331a38c89146101e757806334305545146101fb578063373058b8146102105780634162169f1461021a57806360f8abb91461024557600080fd5b806309eef43e146101315780630be488941461016957806319d40b0814610180578063200d2ed2146101945780633197cbb6146101ba575b600080fd5b61015461013f366004610edc565b600b6020526000908152604090205460ff1681565b60405190151581526020015b60405180910390f35b61017260075481565b604051908152602001610160565b60085461015490600160601b900460ff1681565b6008546101a890600160401b900460ff1681565b60405160ff9091168152602001610160565b6008546101d290640100000000900463ffffffff1681565b60405163ffffffff9091168152602001610160565b60085461015490600160581b900460ff1681565b610203610306565b6040516101609190610f55565b610218610394565b005b60095461022d906001600160a01b031681565b6040516001600160a01b039091168152602001610160565b6008546101a890600160481b900460ff1681565b6008546101d29063ffffffff1681565b60085461015490600160681b900460ff1681565b61029061028b366004610f68565b61063a565b60405161016093929190610f81565b6102186102ad366004610fb1565b610703565b60025461022d906001600160a01b031681565b61017260065481565b610203610ddd565b60015461022d906001600160a01b031681565b6008546101a890600160501b900460ff1681565b61017260055481565b6004805461031390610fd4565b80601f016020809104026020016040519081016040528092919081815260200182805461033f90610fd4565b801561038c5780601f106103615761010080835404028352916020019161038c565b820191906000526020600020905b81548152906001019060200180831161036f57829003601f168201915b505050505081565b600854600160581b900460ff16156103ef5760405162461bcd60e51b8152602060048201526019602482015278141c9bdc1bdcd85b08185b1c9958591e48195e1958dd5d1959603a1b60448201526064015b60405180910390fd5b600854600160601b900460ff166104485760405162461bcd60e51b815260206004820152601960248201527f50726f706f73616c206e6f742079657420617070726f7665640000000000000060448201526064016103e6565b600880546bff0000ff000000000000000019166b01000003000000000000000017905560005b600a54811015610637576000600a828154811061048d5761048d61100e565b90600052602060002090600302016040518060600160405290816000820160009054906101000a90046001600160a01b03166001600160a01b03166001600160a01b03168152602001600182015481526020016002820180546104ef90610fd4565b80601f016020809104026020016040519081016040528092919081815260200182805461051b90610fd4565b80156105685780601f1061053d57610100808354040283529160200191610568565b820191906000526020600020905b81548152906001019060200180831161054b57829003601f168201915b5050505050815250509050600081600001516001600160a01b03168260200151836040015160405161059a9190611024565b60006040518083038185875af1925050503d80600081146105d7576040519150601f19603f3d011682016040523d82523d6000602084013e6105dc565b606091505b505090508061062d5760405162461bcd60e51b815260206004820152601760248201527f416374696f6e20657865637574696f6e206661696c656400000000000000000060448201526064016103e6565b505060010161046e565b50565b600a818154811061064a57600080fd5b60009182526020909120600390910201805460018201546002830180546001600160a01b03909316945090929161068090610fd4565b80601f01602080910402602001604051908101604052809291908181526020018280546106ac90610fd4565b80156106f95780601f106106ce576101008083540402835291602001916106f9565b820191906000526020600020905b8154815290600101906020018083116106dc57829003601f168201915b5050505050905083565b60095460405163fe436c5360e01b81523360048201526001600160a01b039091169063fe436c5390602401602060405180830381865afa15801561074b573d6000803e3d6000fd5b505050506040513d601f19601f8201168201806040525081019061076f9190611040565b6107c95760405162461bcd60e51b815260206004820152602560248201527f44414f203a20596f7520617265206e6f742061206d656d626572206f66207468604482015264652064616f60d81b60648201526084016103e6565b600854600160401b900460ff166108175760405162461bcd60e51b8152602060048201526012602482015271141c9bdc1bdcd85b081b9bdd08195e1a5cdd60721b60448201526064016103e6565b600854600160581b900460ff161561086d5760405162461bcd60e51b8152602060048201526019602482015278141c9bdc1bdcd85b08185b1c9958591e48195e1958dd5d1959603a1b60448201526064016103e6565b336000908152600b602052604090205460ff16156108bd5760405162461bcd60e51b815260206004820152600d60248201526c105b1c9958591e481d9bdd1959609a1b60448201526064016103e6565b60085463ffffffff164210156109155760405162461bcd60e51b815260206004820152601a60248201527f566f74696e6720686173206e6f7420737461727465642079657400000000000060448201526064016103e6565b600854640100000000900463ffffffff164211156109685760405162461bcd60e51b815260206004820152601060248201526f159bdd1a5b99c81a185cc8195b99195960821b60448201526064016103e6565b600061097333610dea565b9050600081116109b75760405162461bcd60e51b815260206004820152600f60248201526e2737903b37ba34b733903837bbb2b960891b60448201526064016103e6565b8160ff166001036109df5780600560008282546109d49190611078565b90915550610a5b9050565b8160ff166002036109fc5780600660008282546109d49190611078565b8160ff16600303610a195780600760008282546109d49190611078565b60408051631c7efab360e21b81526004810191909152600b60448201526a31206f722032206f72203360a81b606482015260ff831660248201526084016103e6565b336000908152600b6020908152604091829020805460ff1916600117905560095482516351ed635760e11b815292516001600160a01b03919091169263a3dac6ae9260048083019391928290030181865afa158015610abe573d6000803e3d6000fd5b505050506040513d601f19601f82011682018060405250810190610ae29190611040565b15610c075760095460408051630297f9af60e41b815290516000926001600160a01b03169163297f9af09160048083019260209291908290030181865afa158015610b31573d6000803e3d6000fd5b505050506040513d601f19601f82011682018060405250810190610b559190611091565b90506000816005546064610b6991906110aa565b610b7391906110c1565b600854909150600160501b900460ff168110610bf357600854600160681b900460ff1680610bb15750600854640100000000900463ffffffff164210155b8015610bc05750600654600554115b6008805464ff000000ff60401b1916600160601b9215159290920260ff60401b191691909117600160411b179055610c01565b6008805460ff60601b191690555b50505050565b600254604080516318160ddd60e01b815290516000926001600160a01b0316916318160ddd9160048083019260209291908290030181865afa158015610c51573d6000803e3d6000fd5b505050506040513d601f19601f82011682018060405250810190610c759190611091565b905060008111610cd65760405162461bcd60e51b815260206004820152602660248201527f546f74616c20737570706c79206d7573742062652067726561746572207468616044820152656e207a65726f60d01b60648201526084016103e6565b6000600754600654600554610ceb9190611078565b610cf59190611078565b9050600082610d058360646110aa565b610d0f91906110c1565b90506000826005546064610d2391906110aa565b610d2d91906110c1565b600854909150600160501b900460ff168110801590610d585750600854600160481b900460ff168210155b15610dc757600854600160681b900460ff1680610d855750600854640100000000900463ffffffff164210155b8015610d945750600654600554115b6008805464ff000000ff60401b1916600160601b9215159290920260ff60401b191691909117600160411b179055610dd5565b6008805460ff60601b191690555b505050505050565b6003805461031390610fd4565b600954604080516351ed635760e11b815290516000926001600160a01b03169163a3dac6ae9160048083019260209291908290030181865afa158015610e34573d6000803e3d6000fd5b505050506040513d601f19601f82011682018060405250810190610e589190611040565b15610e6557506001919050565b6002546040516370a0823160e01b81526001600160a01b0384811660048301529091169081906370a0823190602401602060405180830381865afa158015610eb1573d6000803e3d6000fd5b505050506040513d601f19601f82011682018060405250810190610ed59190611091565b9392505050565b600060208284031215610eee57600080fd5b81356001600160a01b0381168114610ed557600080fd5b60005b83811015610f20578181015183820152602001610f08565b50506000910152565b60008151808452610f41816020860160208601610f05565b601f01601f19169290920160200192915050565b602081526000610ed56020830184610f29565b600060208284031215610f7a57600080fd5b5035919050565b60018060a01b0384168152826020820152606060408201526000610fa86060830184610f29565b95945050505050565b600060208284031215610fc357600080fd5b813560ff81168114610ed557600080fd5b600181811c90821680610fe857607f821691505b60208210810361100857634e487b7160e01b600052602260045260246000fd5b50919050565b634e487b7160e01b600052603260045260246000fd5b60008251611036818460208701610f05565b9190910192915050565b60006020828403121561105257600080fd5b81518015158114610ed557600080fd5b634e487b7160e01b600052601160045260246000fd5b8082018082111561108b5761108b611062565b92915050565b6000602082840312156110a357600080fd5b5051919050565b808202811582820484141761108b5761108b611062565b6000826110de57634e487b7160e01b600052601260045260246000fd5b50049056fea2646970667358221220ea11331b52399f8202c0a48beef0d92cc4c6b6777a53e13750d07b72cb53086f64736f6c634300081b0033a2646970667358221220f904efecf4d0d31493f8086ae35a29b7e02ebf33788964a8a8f5680d432e7e1864736f6c634300081b0033",
  "linkReferences": {},
  "deployedLinkReferences": {}
}