{
  "_format": "hh-sol-artifact-1",
  "contractName": "DAOFactory_v2",
  "sourceName": "contracts/DaoFactoryFlatten.sol",
  "abi": [
    {
      "anonymous": false,
      "inputs": [
        {
          "indexed": false,
          "internalType": "uint32",
          "name": "daoId",
          "type": "uint32"
        },
        {
          "indexed": false,
          "internalType": "address",
          "name": "daoAddress",
          "type": "address"
        },
        {
          "indexed": false,
          "internalType": "string",
          "name": "daoName",
          "type": "string"
        },
        {
          "indexed": false,
          "internalType": "address",
          "name": "creator",
          "type": "address"
        }
      ],
      "name": "DAOCreated",
      "type": "event"
    },
    {
      "inputs": [
        {
          "internalType": "string",
          "name": "name",
          "type": "string"
        },
        {
          "internalType": "address",
          "name": "govTokenAddr",
          "type": "address"
        },
        {
          "components": [
            {
              "internalType": "string",
              "name": "name",
              "type": "string"
            },
            {
              "internalType": "string",
              "name": "symbol",
              "type": "string"
            },
            {
              "internalType": "address",
              "name": "councilAddress",
              "type": "address"
            }
          ],
          "internalType": "struct DAO.GovernanceTokenParams",
          "name": "govParams",
          "type": "tuple"
        },
        {
          "internalType": "uint8",
          "name": "minParticipation",
          "type": "uint8"
        },
        {
          "internalType": "uint8",
          "name": "supportThreshold",
          "type": "uint8"
        },
        {
          "internalType": "uint32",
          "name": "minDuration",
          "type": "uint32"
        },
        {
          "internalType": "bool",
          "name": "earlyExecution",
          "type": "bool"
        },
        {
          "internalType": "bool",
          "name": "voteChange",
          "type": "bool"
        },
        {
          "components": [
            {
              "internalType": "address",
              "name": "memberAddress",
              "type": "address"
            },
            {
              "internalType": "uint256",
              "name": "deposit",
              "type": "uint256"
            }
          ],
          "internalType": "struct IDAO.DAOMember[]",
          "name": "members",
          "type": "tuple[]"
        },
        {
          "internalType": "bool",
          "name": "multiSign",
          "type": "bool"
        }
      ],
      "name": "createDAO",
      "outputs": [
        {
          "internalType": "address",
          "name": "",
          "type": "address"
        }
      ],
      "stateMutability": "nonpayable",
      "type": "function"
    },
    {
      "inputs": [],
      "name": "daoId",
      "outputs": [
        {
          "internalType": "uint32",
          "name": "",
          "type": "uint32"
        }
      ],
      "stateMutability": "view",
      "type": "function"
    },
    {
      "inputs": [
        {
          "internalType": "uint32",
          "name": "",
          "type": "uint32"
        }
      ],
      "name": "daos",
      "outputs": [
        {
          "internalType": "string",
          "name": "name",
          "type": "string"
        },
        {
          "internalType": "address",
          "name": "daoAddress",
          "type": "address"
        },
        {
          "internalType": "address",
          "name": "daoCreator",
          "type": "address"
        },
        {
          "internalType": "address",
          "name": "governanceAddress",
          "type": "address"
        }
      ],
      "stateMutability": "view",
      "type": "function"
    }
  ],
  "bytecode": "0x6080604052348015600f57600080fd5b50615b298061001f6000396000f3fe608060405234801561001057600080fd5b50600436106100415760003560e01c806336df918414610046578063a872d44114610072578063cac2699b1461009d575b600080fd5b61005961005436600461030b565b6100c2565b6040516100699493929190610373565b60405180910390f35b61008561008036600461061c565b610181565b6040516001600160a01b039091168152602001610069565b6000546100ad9063ffffffff1681565b60405163ffffffff9091168152602001610069565b6001602052600090815260409020805481906100dd90610727565b80601f016020809104026020016040519081016040528092919081815260200182805461010990610727565b80156101565780601f1061012b57610100808354040283529160200191610156565b820191906000526020600020905b81548152906001019060200180831161013957829003601f168201915b505050506001830154600284015460039094015492936001600160a01b039182169390821692501684565b6000808a8a8a8a8a8a8a8a8a604051610199906102e5565b6101ab999897969594939291906107b2565b604051809103906000f0801580156101c7573d6000803e3d6000fd5b506000805491925063ffffffff90911690806101e28361086d565b91906101000a81548163ffffffff021916908363ffffffff1602179055505060405180608001604052808d8152602001826001600160a01b03168152602001336001600160a01b031681526020018c6001600160a01b0316815250600160008060009054906101000a900463ffffffff1663ffffffff1663ffffffff168152602001908152602001600020600082015181600001908161028291906108ef565b5060208201516001820180546001600160a01b03199081166001600160a01b03938416179091556040840151600284018054831691841691909117905560609093015160039092018054909316911617905590505b9a9950505050505050505050565b615145806109af83390190565b803563ffffffff8116811461030657600080fd5b919050565b60006020828403121561031d57600080fd5b610326826102f2565b9392505050565b6000815180845260005b8181101561035357602081850181015186830182015201610337565b506000602082860101526020601f19601f83011685010191505092915050565b608081526000610386608083018761032d565b6001600160a01b0395861660208401529385166040830152509216606090920191909152919050565b634e487b7160e01b600052604160045260246000fd5b6040805190810167ffffffffffffffff811182821017156103e8576103e86103af565b60405290565b604051601f8201601f1916810167ffffffffffffffff81118282101715610417576104176103af565b604052919050565b600082601f83011261043057600080fd5b813567ffffffffffffffff81111561044a5761044a6103af565b61045d601f8201601f19166020016103ee565b81815284602083860101111561047257600080fd5b816020850160208301376000918101602001919091529392505050565b80356001600160a01b038116811461030657600080fd5b6000606082840312156104b857600080fd5b6040516060810167ffffffffffffffff811182821017156104db576104db6103af565b604052905080823567ffffffffffffffff8111156104f857600080fd5b6105048582860161041f565b825250602083013567ffffffffffffffff81111561052157600080fd5b61052d8582860161041f565b60208301525061053f6040840161048f565b60408201525092915050565b803560ff8116811461030657600080fd5b8035801515811461030657600080fd5b600082601f83011261057d57600080fd5b813567ffffffffffffffff811115610597576105976103af565b6105a660208260051b016103ee565b8082825260208201915060208360061b8601019250858311156105c857600080fd5b602085015b8381101561061257604081880312156105e557600080fd5b6105ed6103c5565b6105f68261048f565b81526020828101358183015290845292909201916040016105cd565b5095945050505050565b6000806000806000806000806000806101408b8d03121561063c57600080fd5b8a3567ffffffffffffffff81111561065357600080fd5b61065f8d828e0161041f565b9a505061066e60208c0161048f565b985060408b013567ffffffffffffffff81111561068a57600080fd5b6106968d828e016104a6565b9850506106a560608c0161054b565b96506106b360808c0161054b565b95506106c160a08c016102f2565b94506106cf60c08c0161055c565b93506106dd60e08c0161055c565b92506101008b013567ffffffffffffffff8111156106fa57600080fd5b6107068d828e0161056c565b9250506107166101208c0161055c565b90509295989b9194979a5092959850565b600181811c9082168061073b57607f821691505b60208210810361075b57634e487b7160e01b600052602260045260246000fd5b50919050565b600081518084526020840193506020830160005b828110156107a857815180516001600160a01b031687526020908101518188015260409096019590910190600101610775565b5093949350505050565b60018060a01b038a16815261012060208201526000895160606101208401526107df61018084018261032d565b905060208b015161011f19848303016101408501526107fe828261032d565b60408d8101516001600160a01b031661016087015260ff8d169086015291506108249050565b60ff8916606084015263ffffffff8816608084015286151560a084015285151560c084015282810360e084015261085b8186610761565b9150506102d761010083018415159052565b600063ffffffff821663ffffffff810361089757634e487b7160e01b600052601160045260246000fd5b60010192915050565b601f8211156108ea57806000526020600020601f840160051c810160208510156108c75750805b601f840160051c820191505b818110156108e757600081556001016108d3565b50505b505050565b815167ffffffffffffffff811115610909576109096103af565b61091d816109178454610727565b846108a0565b6020601f82116001811461095157600083156109395750848201515b600019600385901b1c1916600184901b1784556108e7565b600084815260208120601f198516915b828110156109815787850151825560209485019460019092019101610961565b508482101561099f5786840151600019600387901b60f8161c191681555b50505050600190811b0190555056fe60e060405234801561001057600080fd5b5060405161514538038061514583398101604081905261002f9161065d565b60016000556001600160a01b03891615610055576001600160a01b0389166080526100e2565b6040805160c08101825260018082526000602080840182905283850183905260608401839052608084019290925260a08301528a51908b01518b84015193519293919290919060129085906100a990610431565b6100b79594939291906107d8565b604051809103906000f0801580156100d3573d6000803e3d6000fd5b506001600160a01b0316608052505b7379a5ece4c0db687a64e429d88d1f931c753c2c256001600160a01b031660a0816001600160a01b0316815250506000604051806060016040528086151581526020018515158152602001831515815250905087600260006101000a81548160ff021916908360ff16021790555086600260016101000a81548160ff021916908360ff1602179055508563ffffffff1660038190555080600160008201518160000160006101000a81548160ff02191690831515021790555060208201518160000160016101000a81548160ff02191690831515021790555060408201518160000160026101000a81548160ff021916908315150217905550905050336001600160a01b031660c0816001600160a01b03168152505061020661021e60201b60201c565b61020f8361027d565b505050505050505050506108a7565b60805160405163965afa8960e01b81523060048201526001600160a01b0382169063965afa8990602401600060405180830381600087803b15801561026257600080fd5b505af1158015610276573d6000803e3d6000fd5b5050505050565b6102856103d3565b6102a257604051632c972a5f60e01b815260040160405180910390fd5b60805160005b82518110156103ce5760008382815181106102c5576102c561086a565b602002602001015160000151905060008483815181106102e7576102e761086a565b6020908102919091018101518101516001600160a01b0384166000908152600a90925260409091205490915060ff166103c4576001600160a01b0382166000908152600a60205260408120805460ff191660011790556006805490919061034d90610880565b9091555060045462010000900460ff166103c4576040516373a1403560e11b81526001600160a01b0383811660048301526024820183905285169063e742806a90604401600060405180830381600087803b1580156103ab57600080fd5b505af11580156103bf573d6000803e3d6000fd5b505050505b50506001016102a8565b505050565b3360008181526009602052604081205490919060ff16156104075760405163c8e5275b60e01b815260040160405180910390fd5b60065460000361041957600191505090565b5050336000908152600a602052604090205460ff1690565b6133bd80611d8883390190565b80516001600160a01b038116811461045557600080fd5b919050565b634e487b7160e01b600052604160045260246000fd5b604080519081016001600160401b03811182821017156104925761049261045a565b60405290565b604051606081016001600160401b03811182821017156104925761049261045a565b604051601f8201601f191681016001600160401b03811182821017156104e2576104e261045a565b604052919050565b60005b838110156105055781810151838201526020016104ed565b50506000910152565b600082601f83011261051f57600080fd5b81516001600160401b038111156105385761053861045a565b61054b601f8201601f19166020016104ba565b81815284602083860101111561056057600080fd5b6105718260208301602087016104ea565b949350505050565b805160ff8116811461045557600080fd5b805163ffffffff8116811461045557600080fd5b8051801515811461045557600080fd5b600082601f8301126105bf57600080fd5b81516001600160401b038111156105d8576105d861045a565b6105e760208260051b016104ba565b8082825260208201915060208360061b86010192508583111561060957600080fd5b602085015b83811015610653576040818803121561062657600080fd5b61062e610470565b6106378261043e565b815260208281015181830152908452929092019160400161060e565b5095945050505050565b60008060008060008060008060006101208a8c03121561067c57600080fd5b6106858a61043e565b60208b01519099506001600160401b038111156106a157600080fd5b8a016060818d0312156106b357600080fd5b6106bb610498565b81516001600160401b038111156106d157600080fd5b6106dd8e82850161050e565b82525060208201516001600160401b038111156106f957600080fd5b6107058e82850161050e565b6020830152506107176040830161043e565b6040820152809950505061072d60408b01610579565b965061073b60608b01610579565b955061074960808b0161058a565b945061075760a08b0161059e565b935061076560c08b0161059e565b60e08b01519093506001600160401b0381111561078157600080fd5b61078d8c828d016105ae565b92505061079d6101008b0161059e565b90509295985092959850929598565b600081518084526107c48160208601602086016104ea565b601f01601f19169290920160200192915050565b610140815260006107ed6101408301886107ac565b82810360208401526107ff81886107ac565b91505060018060a01b038516604083015260ff841660608301528251151560808301526020830151151560a08301526040830151151560c08301526060830151151560e08301526080830151151561010083015260a083015115156101208301529695505050505050565b634e487b7160e01b600052603260045260246000fd5b6000600182016108a057634e487b7160e01b600052601160045260246000fd5b5060010190565b60805160a05160c0516114966108f2600039600061022d0152600081816101c501526107a50152600081816103d9015281816104e90152818161097e0152610a1e01526114966000f3fe608060405234801561001057600080fd5b50600436106101585760003560e01c80637e7b1d42116100c3578063dbac26e91161007c578063dbac26e914610379578063dd49756e1461039c578063e0dd47c8146103af578063e987194f146103c2578063f96dae0a146103d4578063fe436c53146103fb57600080fd5b80637e7b1d42146102f0578063a3dac6ae146102fd578063a89ab8f414610310578063af4c683814610323578063b1e44d8f14610343578063d6b6b2141461036657600080fd5b80633e3ee5a2116101155780633e3ee5a21461021f5780634ab17f3114610228578063520500031461024f57806354445ae61461027257806358feca511461029257806360f8abb9146102d157600080fd5b8063013cf08b1461015d57806305074f111461018957806306b091f9146101ab5780631fe753e9146101c0578063297f9af0146101ff5780632dfca44514610216575b600080fd5b61017061016b366004610d57565b61040e565b6040516101809493929190610db6565b60405180910390f35b60045461019b90610100900460ff1681565b6040519015158152602001610180565b6101be6101b9366004610e0b565b6104cc565b005b6101e77f000000000000000000000000000000000000000000000000000000000000000081565b6040516001600160a01b039091168152602001610180565b61020860065481565b604051908152602001610180565b61020860055481565b61020860035481565b6101e77f000000000000000000000000000000000000000000000000000000000000000081565b61019b61025d366004610e37565b600c6020526000908152604090205460ff1681565b610208610280366004610e37565b60076020526000908152604090205481565b6001546102b29060ff808216916101008104821691620100009091041683565b6040805193151584529115156020840152151590820152606001610180565b6002546102de9060ff1681565b60405160ff9091168152602001610180565b60045461019b9060ff1681565b60045461019b9062010000900460ff1681565b6101be61031e366004610e37565b61068f565b610208610331366004610e37565b600b6020526000908152604090205481565b61019b610351366004610e37565b600a6020526000908152604090205460ff1681565b6101e7610374366004611077565b61071e565b61019b610387366004610e37565b60096020526000908152604090205460ff1681565b6101be6103aa366004610d57565b610a09565b6101be6103bd366004610e37565b610c21565b6002546102de90610100900460ff1681565b6101e77f000000000000000000000000000000000000000000000000000000000000000081565b61019b610409366004610e37565b610cad565b6008602052600090815260409020805460018201546002830180546001600160a01b0393841694929093169261044390611144565b80601f016020809104026020016040519081016040528092919081815260200182805461046f90611144565b80156104bc5780601f10610491576101008083540402835291602001916104bc565b820191906000526020600020905b81548152906001019060200180831161049f57829003601f168201915b5050505050908060030154905084565b6104d4610d2d565b6040516370a0823160e01b81523060048201527f0000000000000000000000000000000000000000000000000000000000000000906000906001600160a01b038316906370a0823190602401602060405180830381865afa15801561053d573d6000803e3d6000fd5b505050506040513d601f19601f820116820180604052508101906105619190611178565b6001600160a01b0385166000908152600b6020526040902054909150838110156105c75760405162461bcd60e51b81526020600482015260126024820152716e6f7420656e6f7567682062616c616e636560701b60448201526064015b60405180910390fd5b8082101580156105d75750818411155b1561067e576001600160a01b0385166000908152600b6020526040812080548692906106049084906111a7565b909155505060405163a9059cbb60e01b81526001600160a01b0386811660048301526024820186905284169063a9059cbb906044016020604051808303816000875af1158015610658573d6000803e3d6000fd5b505050506040513d601f19601f8201168201806040525081019061067c91906111c0565b505b50505061068b6001600055565b5050565b336000818152600a602052604090205460ff166106bf57604051632c972a5f60e01b815260040160405180910390fd5b6001600160a01b03811660009081526009602052604090205460ff16156106f95760405163c8e5275b60e01b815260040160405180910390fd5b506001600160a01b03166000908152600960205260409020805460ff19166001179055565b336000818152600a602052604081205490919060ff1661075157604051632c972a5f60e01b815260040160405180910390fd5b6001600160a01b03811660009081526009602052604090205460ff161561078b5760405163c8e5275b60e01b815260040160405180910390fd5b60056000815461079a906111e2565b9190508190555060007f00000000000000000000000000000000000000000000000000000000000000006001600160a01b031663c76b298230338c8c8c8c8b600260009054906101000a900460ff16600260019054906101000a900460ff16600460009054906101000a900460ff166040518b63ffffffff1660e01b815260040161082e9a999897969594939291906111fb565b6020604051808303816000875af115801561084d573d6000803e3d6000fd5b505050506040513d601f19601f82011682018060405250810190610871919061130f565b604080516080810182526001600160a01b0380841682523360208084019182528385018f81526005546060860181905260009081526008909252949020835181549084166001600160a01b031991821617825591516001820180549190941692169190911790915591519293509160028201906108ee9082611378565b50606091909101516003909101556001600160a01b0381166000908152600c60205260409020805460ff19166001179055600460ff168560ff16116109e15760008560ff16600481111561094457610944611437565b9050600081600481111561095a5761095a611437565b036109df5760405163a84b01f160e01b81526001600160a01b0383811660048301527f0000000000000000000000000000000000000000000000000000000000000000919082169063a84b01f190602401600060405180830381600087803b1580156109c557600080fd5b505af11580156109d9573d6000803e3d6000fd5b50505050505b505b50506005546000908152600860205260409020546001600160a01b0316979650505050505050565b6040516370a0823160e01b81523360048201527f0000000000000000000000000000000000000000000000000000000000000000906000906001600160a01b038316906370a0823190602401602060405180830381865afa158015610a72573d6000803e3d6000fd5b505050506040513d601f19601f82011682018060405250810190610a969190611178565b604051636eb1769f60e11b81523360048201523060248201529091506000906001600160a01b0384169063dd62ed3e90604401602060405180830381865afa158015610ae6573d6000803e3d6000fd5b505050506040513d601f19601f82011682018060405250810190610b0a9190611178565b905083811015610b2d576040516349ab02a560e11b815260040160405180910390fd5b838210610c1b57336000908152600b602052604081208054869290610b5390849061144d565b90915550506040516323b872dd60e01b8152336004820152306024820152604481018590526000906001600160a01b038516906323b872dd906064016020604051808303816000875af1158015610bae573d6000803e3d6000fd5b505050506040513d601f19601f82011682018060405250810190610bd291906111c0565b905080610c195760405162461bcd60e51b8152602060048201526015602482015274151bdad95b881d1c985b9cd9995c8819985a5b1959605a1b60448201526064016105be565b505b50505050565b336000818152600a602052604090205460ff16610c5157604051632c972a5f60e01b815260040160405180910390fd5b6001600160a01b03811660009081526009602052604090205460ff1615610c8b5760405163c8e5275b60e01b815260040160405180910390fd5b506001600160a01b03166000908152600960205260409020805460ff19169055565b6001600160a01b0381166000908152600a6020526040812054829060ff16610ce857604051632c972a5f60e01b815260040160405180910390fd5b6001600160a01b03811660009081526009602052604090205460ff1615610d225760405163c8e5275b60e01b815260040160405180910390fd5b600191505b50919050565b600260005403610d5057604051633ee5aeb560e01b815260040160405180910390fd5b6002600055565b600060208284031215610d6957600080fd5b5035919050565b6000815180845260005b81811015610d9657602081850181015186830182015201610d7a565b506000602082860101526020601f19601f83011685010191505092915050565b6001600160a01b03858116825284166020820152608060408201819052600090610de290830185610d70565b905082606083015295945050505050565b6001600160a01b0381168114610e0857600080fd5b50565b60008060408385031215610e1e57600080fd5b8235610e2981610df3565b946020939093013593505050565b600060208284031215610e4957600080fd5b8135610e5481610df3565b9392505050565b634e487b7160e01b600052604160045260246000fd5b6040516060810167ffffffffffffffff81118282101715610e9457610e94610e5b565b60405290565b604051601f8201601f1916810167ffffffffffffffff81118282101715610ec357610ec3610e5b565b604052919050565b60008067ffffffffffffffff841115610ee657610ee6610e5b565b50601f8301601f1916602001610efb81610e9a565b915050828152838383011115610f1057600080fd5b828260208301376000602084830101529392505050565b600082601f830112610f3857600080fd5b610e5483833560208501610ecb565b803563ffffffff81168114610f5b57600080fd5b919050565b600082601f830112610f7157600080fd5b813567ffffffffffffffff811115610f8b57610f8b610e5b565b8060051b610f9b60208201610e9a565b91825260208185018101929081019086841115610fb757600080fd5b6020860192505b8383101561106d57823567ffffffffffffffff811115610fdd57600080fd5b86016060818903601f19011215610ff357600080fd5b610ffb610e71565b602082013561100981610df3565b815260408201356020820152606082013567ffffffffffffffff81111561102f57600080fd5b60208184010192505088601f83011261104757600080fd5b61105689833560208501610ecb565b604082015283525060209283019290910190610fbe565b9695505050505050565b60008060008060008060c0878903121561109057600080fd5b863567ffffffffffffffff8111156110a757600080fd5b6110b389828a01610f27565b965050602087013567ffffffffffffffff8111156110d057600080fd5b6110dc89828a01610f27565b9550506110eb60408801610f47565b93506110f960608801610f47565b9250608087013560ff8116811461110f57600080fd5b915060a087013567ffffffffffffffff81111561112b57600080fd5b61113789828a01610f60565b9150509295509295509295565b600181811c9082168061115857607f821691505b602082108103610d2757634e487b7160e01b600052602260045260246000fd5b60006020828403121561118a57600080fd5b5051919050565b634e487b7160e01b600052601160045260246000fd5b818103818111156111ba576111ba611191565b92915050565b6000602082840312156111d257600080fd5b81518015158114610e5457600080fd5b6000600182016111f4576111f4611191565b5060010190565b6001600160a01b038b811682528a166020820152610140604082018190526000906112289083018b610d70565b828103606084015261123a818b610d70565b905063ffffffff8916608084015263ffffffff881660a084015282810360c0840152806000885180845260208401925060208160051b85010160208b0160005b838110156112d657868303601f19018652815180516001600160a01b03168452602080820151908501526040908101516060918501829052906112bf90850182610d70565b60209788019790945092909201915060010161127a565b505060ff8a1660e088015294506112ed9350505050565b60ff84166101008301528215156101208301529b9a5050505050505050505050565b60006020828403121561132157600080fd5b8151610e5481610df3565b601f82111561137357806000526020600020601f840160051c810160208510156113535750805b601f840160051c820191505b81811015610c19576000815560010161135f565b505050565b815167ffffffffffffffff81111561139257611392610e5b565b6113a6816113a08454611144565b8461132c565b6020601f8211600181146113da57600083156113c25750848201515b600019600385901b1c1916600184901b178455610c19565b600084815260208120601f198516915b8281101561140a57878501518255602094850194600190920191016113ea565b50848210156114285786840151600019600387901b60f8161c191681555b50505050600190811b01905550565b634e487b7160e01b600052602160045260246000fd5b808201808211156111ba576111ba61119156fea26469706673582212201397a70b2e7ba7fcdf6326dced62ec9bd686801c577b7fc7baf647cecc9e9c6864736f6c634300081b003361016060405234801561001157600080fd5b506040516133bd3803806133bd83398101604081905261003091610551565b6040805180820190915260018152603160f81b602082015285908190858288600361005b8382610690565b5060046100688282610690565b50506005805460ff191690555060016006556001600160a01b0381166100a957604051631e4fbdf760e01b8152600060048201526024015b60405180910390fd5b6100b281610267565b506100be8260086102b9565b610120526100cd8160096102b9565b61014052815160208084019190912060e052815190820120610100524660a05261015a60e05161010051604080517f8b73c3c69bb8fe3d512ecc4cf759cc79239f7b179b0ffacaa9a75d522b39400f60208201529081019290925260608201524660808201523060a082015260009060c00160405160208183030381529060405280519060200120905090565b60805250503060c05250600f8054610100600160a81b031916905561021781606081015160108054602084015184516040860151608087015160a09097015163ff00ff001990941663010000009615159690960261ff00191695909517610100921515929092029190911762ff00ff191690151562ff000019161762010000931515939093029290921761ffff60201b19166401000000009315159390930260ff60281b1916929092176501000000000091151591909102179055565b600f805460ff191660ff84161790556102316000846102ec565b5061025c7f5611063d513780fd7cb3f52dedf0696140727f47ee0024e046ea70e4f4d62a13846102ec565b5050505050506107a5565b600780546001600160a01b038381166001600160a01b0319831681179093556040519116919082907f8be0079c531659141344cd1fd0a4f28419497f9722a3daafe3b4186f6b6457e090600090a35050565b60006020835110156102d5576102ce8361039a565b90506102e6565b816102e08482610690565b5060ff90505b92915050565b6000828152600e602090815260408083206001600160a01b038516845290915281205460ff16610392576000838152600e602090815260408083206001600160a01b03861684529091529020805460ff1916600117905561034a3390565b6001600160a01b0316826001600160a01b0316847f2f8788117e7eff1d82e926ec794901d17c78024a50270940304540a733656f0d60405160405180910390a45060016102e6565b5060006102e6565b600080829050601f815111156103c5578260405163305a27a960e01b81526004016100a0919061074e565b80516103d082610781565b179392505050565b634e487b7160e01b600052604160045260246000fd5b60005b838110156104095781810151838201526020016103f1565b50506000910152565b600082601f83011261042357600080fd5b81516001600160401b0381111561043c5761043c6103d8565b604051601f8201601f19908116603f011681016001600160401b038111828210171561046a5761046a6103d8565b60405281815283820160200185101561048257600080fd5b6104938260208301602087016103ee565b949350505050565b805180151581146104ab57600080fd5b919050565b600060c082840312156104c257600080fd5b60405160c081016001600160401b03811182821017156104e4576104e46103d8565b6040529050806104f38361049b565b81526105016020840161049b565b60208201526105126040840161049b565b60408201526105236060840161049b565b60608201526105346080840161049b565b608082015261054560a0840161049b565b60a08201525092915050565b6000806000806000610140868803121561056a57600080fd5b85516001600160401b0381111561058057600080fd5b61058c88828901610412565b602088015190965090506001600160401b038111156105aa57600080fd5b6105b688828901610412565b604088015190955090506001600160a01b03811681146105d557600080fd5b606087015190935060ff811681146105ec57600080fd5b91506105fb87608088016104b0565b90509295509295909350565b600181811c9082168061061b57607f821691505b60208210810361063b57634e487b7160e01b600052602260045260246000fd5b50919050565b601f82111561068b57806000526020600020601f840160051c810160208510156106685750805b601f840160051c820191505b818110156106885760008155600101610674565b50505b505050565b81516001600160401b038111156106a9576106a96103d8565b6106bd816106b78454610607565b84610641565b6020601f8211600181146106f157600083156106d95750848201515b600019600385901b1c1916600184901b178455610688565b600084815260208120601f198516915b828110156107215787850151825560209485019460019092019101610701565b508482101561073f5786840151600019600387901b60f8161c191681555b50505050600190811b01905550565b602081526000825180602084015261076d8160408501602087016103ee565b601f01601f19169190910160400192915050565b8051602080830151919081101561063b5760001960209190910360031b1b16919050565b60805160a05160c05160e051610100516101205161014051612bbe6107ff6000396000611912015260006118e501526000611521015260006114f9015260006114540152600061147e015260006114a80152612bbe6000f3fe608060405234801561001057600080fd5b50600436106102a05760003560e01c80637ecebe0011610167578063a84b01f1116100ce578063dd62ed3e11610087578063dd62ed3e14610639578063e742806a14610672578063f1127ed814610685578063f2509ce4146106c4578063f2fde38b146106cc578063f99e36bc146106df57600080fd5b8063a84b01f1146105c7578063a9059cbb146105da578063aecf8a6d146105ed578063c3cda52014610600578063d505accf14610613578063d547741f1461062657600080fd5b806391d148541161012057806391d148541461055f57806391ddadf41461057257806395d89b4114610591578063965afa89146105995780639ab24eb0146105ac578063a217fddf146105bf57600080fd5b80637ecebe00146104f2578063810664e7146105055780638456cb591461051857806384b0196e146105205780638da5cb5b1461053b5780638e539e8c1461054c57600080fd5b80633f4ba83a1161020b578063587cde1e116101c4578063587cde1e1461044f5780635c19a95c1461047b5780635c975abb1461048e5780636fcfff451461049957806370a08231146104c1578063715018a6146104ea57600080fd5b80633f4ba83a146103c55780634ac5b7a8146103cd5780634bf5d7e9146103e05780634dca738b146103e8578063520500031461040b57806354fd4d501461042e57600080fd5b8063248a9ca31161025d578063248a9ca31461034a5780632f2ff15d1461036d578063313ce567146103825780633644e5151461039757806336568abe1461039f5780633a46b1a8146103b257600080fd5b806301ffc9a7146102a557806306fdde03146102cd578063095ea7b3146102e257806318160ddd146102f55780632131c68c1461030757806323b872dd14610337575b600080fd5b6102b86102b33660046126f4565b610758565b60405190151581526020015b60405180910390f35b6102d561078f565b6040516102c49190612764565b6102b86102f0366004612793565b610821565b6002545b6040519081526020016102c4565b600f5461031f9061010090046001600160a01b031681565b6040516001600160a01b0390911681526020016102c4565b6102b86103453660046127bd565b610839565b6102f96103583660046127fa565b6000908152600e602052604090206001015490565b61038061037b366004612813565b61085d565b005b600f5460405160ff90911681526020016102c4565b6102f9610888565b6103806103ad366004612813565b610897565b6102f96103c0366004612793565b6108cf565b610380610955565b6102b86103db36600461283f565b6109e2565b6102d56109fc565b6102b86103f636600461283f565b60116020526000908152604090205460ff1681565b6102b861041936600461283f565b60126020526000908152604090205460ff1681565b6040805180820190915260058152640312e302e360dc1b60208201526102d5565b61031f61045d36600461283f565b6001600160a01b039081166000908152600b60205260409020541690565b61038061048936600461283f565b610a74565b60055460ff166102b8565b6104ac6104a736600461283f565b610a83565b60405163ffffffff90911681526020016102c4565b6102f96104cf36600461283f565b6001600160a01b031660009081526020819052604090205490565b610380610a8e565b6102f961050036600461283f565b610aa0565b61038061051336600461283f565b610aab565b610380610b14565b610528610ba0565b6040516102c4979695949392919061285a565b6007546001600160a01b031661031f565b6102f961055a3660046127fa565b610be6565b6102b861056d366004612813565b610c50565b61057a610c7b565b60405165ffffffffffff90911681526020016102c4565b6102d5610c85565b6103806105a736600461283f565b610c94565b6102f96105ba36600461283f565b610d6e565b6102f9600081565b6103806105d536600461283f565b610d9e565b6102b86105e8366004612793565b610e50565b6103806105fb366004612793565b610e5e565b61038061060e366004612903565b610f4f565b61038061062136600461295b565b61100c565b610380610634366004612813565b611146565b6102f96106473660046129c6565b6001600160a01b03918216600090815260016020908152604080832093909416825291909152205490565b610380610680366004612793565b61116b565b6106986106933660046129f0565b61123e565b60408051825165ffffffffffff1681526020928301516001600160d01b031692810192909252016102c4565b6102b8611263565b6103806106da36600461283f565b611287565b60105461071f9060ff8082169161010081048216916201000082048116916301000000810482169164010000000082048116916501000000000090041686565b604080519615158752941515602087015292151593850193909352151560608401529015156080830152151560a082015260c0016102c4565b60006001600160e01b03198216637965db0b60e01b148061078957506301ffc9a760e01b6001600160e01b03198316145b92915050565b60606003805461079e90612a30565b80601f01602080910402602001604051908101604052809291908181526020018280546107ca90612a30565b80156108175780601f106107ec57610100808354040283529160200191610817565b820191906000526020600020905b8154815290600101906020018083116107fa57829003601f168201915b5050505050905090565b60003361082f8185856112c5565b5060019392505050565b6000336108478582856112d2565b61085285858561134a565b506001949350505050565b6000828152600e6020526040902060010154610878816113a9565b61088283836113b3565b50505050565b6000610892611447565b905090565b6001600160a01b03811633146108c05760405163334bd91960e11b815260040160405180910390fd5b6108ca8282611572565b505050565b6000806108da610c7b565b90508065ffffffffffff16831061091a57604051637669fc0f60e11b81526004810184905265ffffffffffff821660248201526044015b60405180910390fd5b610944610926846115df565b6001600160a01b0386166000908152600c6020526040902090611616565b6001600160d01b0316949350505050565b60105462010000900460ff1661097e57604051634beb0e8d60e11b815260040160405180910390fd5b6109866116cc565b60055460ff166109d85760405162461bcd60e51b815260206004820152601760248201527f436f6e7472616374206973206e6f74207061757365642e0000000000000000006044820152606401610911565b6109e06116ef565b565b6000610789600080516020612b6983398151915283610c50565b6060610a06611741565b65ffffffffffff16610a16610c7b565b65ffffffffffff1614610a3c576040516301bfc1c560e61b815260040160405180910390fd5b5060408051808201909152601d81527f6d6f64653d626c6f636b6e756d6265722666726f6d3d64656661756c74000000602082015290565b33610a7f818361174c565b5050565b6000610789826117be565b610a966117e0565b6109e0600061180d565b60006107898261185f565b6001600160a01b038116610afc5760405162461bcd60e51b8152602060048201526018602482015277496e76616c69642070726f706f73616c206164647265737360401b6044820152606401610911565b610a7f600080516020612b6983398151915282611572565b60105462010000900460ff16610b3d57604051634beb0e8d60e11b815260040160405180910390fd5b610b4561187d565b60055460ff1615610b985760405162461bcd60e51b815260206004820152601b60248201527f436f6e747261637420697320616c7265616479207061757365642e00000000006044820152606401610911565b6109e06118a1565b600060608060008060006060610bb46118de565b610bbc61190b565b60408051600080825260208201909252600f60f81b9b939a50919850469750309650945092509050565b600080610bf1610c7b565b90508065ffffffffffff168310610c2c57604051637669fc0f60e11b81526004810184905265ffffffffffff82166024820152604401610911565b610c40610c38846115df565b600d90611616565b6001600160d01b03169392505050565b6000918252600e602090815260408084206001600160a01b0393909316845291905290205460ff1690565b6000610892611741565b60606004805461079e90612a30565b6001600160a01b038116610ce05760405162461bcd60e51b8152602060048201526013602482015272496e76616c69642044414f206164647265737360681b6044820152606401610911565b600f8054610100600160a81b0319166101006001600160a01b038416908102919091179091556000908152601160205260409020805460ff19166001179055610d37600080516020612b49833981519152826113b3565b50610d627fb7cd08e7968c8eb3cceee719dc902b03ff20ef36607309c7b72f07cdb4dbcd3d826113b3565b50610a7f6000826113b3565b6001600160a01b0381166000908152600c60205260408120610d8f90611938565b6001600160d01b031692915050565b3360008181526011602052604090205460ff16610dce57604051638018e00f60e01b815260040160405180910390fd5b6001600160a01b038216610e1f5760405162461bcd60e51b8152602060048201526018602482015277496e76616c69642070726f706f73616c206164647265737360401b6044820152606401610911565b610e37600080516020612b69833981519152836113b3565b506108ca600080516020612b49833981519152836113b3565b60003361082f81858561134a565b601054610100900460ff16610e865760405163f5cd3cbb60e01b815260040160405180910390fd5b610e8e611971565b610e9661187d565b7fb7cd08e7968c8eb3cceee719dc902b03ff20ef36607309c7b72f07cdb4dbcd3d610ecf600080516020612b4983398151915233610c50565b80610eff5750610eff7fb7cd08e7968c8eb3cceee719dc902b03ff20ef36607309c7b72f07cdb4dbcd3d33610c50565b80610f1d5750610f1d600080516020612b6983398151915233610c50565b610f3a57604051636f2e121d60e01b815260040160405180910390fd5b610f44838361199b565b50610a7f6001600655565b83421115610f7357604051632341d78760e11b815260048101859052602401610911565b604080517fe48329057bfd03d55e49b547132e39cffd9c1820ad7b9d4c5307691425d15adf60208201526001600160a01b038816918101919091526060810186905260808101859052600090610fed90610fe59060a001604051602081830303815290604052805190602001206119d1565b8585856119fe565b9050610ff98187611a2c565b611003818861174c565b50505050505050565b834211156110305760405163313c898160e11b815260048101859052602401610911565b60007f6e71edae12b1b97f4d1f60370fef10105fa2faae0126114a169c64845d6126c988888861107d8c6001600160a01b03166000908152600a6020526040902080546001810190915590565b6040805160208101969096526001600160a01b0394851690860152929091166060840152608083015260a082015260c0810186905260e00160405160208183030381529060405280519060200120905060006110d8826119d1565b905060006110e8828787876119fe565b9050896001600160a01b0316816001600160a01b03161461112f576040516325c0072360e11b81526001600160a01b0380831660048301528b166024820152604401610911565b61113a8a8a8a6112c5565b50505050505050505050565b6000828152600e6020526040902060010154611161816113a9565b6108828383611572565b611173611971565b61117b61187d565b60105460ff1661119e57604051632203aebf60e21b815260040160405180910390fd5b6001600160a01b0382166111c55760405163e720ed0d60e01b815260040160405180910390fd5b600081116111e65760405163082e6a8360e31b815260040160405180910390fd5b6111fe600080516020612b4983398151915233610c50565b8061120d575061120d336109e2565b61122a57604051636f2e121d60e01b815260040160405180910390fd5b6112348282611a7f565b610a7f6001600655565b604080518082019091526000808252602082015261125c8383611ab5565b9392505050565b600f5460009061010090046001600160a01b03166112815750600190565b50600090565b61128f6117e0565b6001600160a01b0381166112b957604051631e4fbdf760e01b815260006004820152602401610911565b6112c28161180d565b50565b6108ca8383836001611aeb565b6001600160a01b038381166000908152600160209081526040808320938616835292905220546000198114610882578181101561133b57604051637dc7a0d960e11b81526001600160a01b03841660048201526024810182905260448101839052606401610911565b61088284848484036000611aeb565b6001600160a01b03831661137457604051634b637e8f60e11b815260006004820152602401610911565b6001600160a01b03821661139e5760405163ec442f0560e01b815260006004820152602401610911565b6108ca838383611bc0565b6112c28133611bd3565b60006113bf8383610c50565b61143f576000838152600e602090815260408083206001600160a01b03861684529091529020805460ff191660011790556113f73390565b6001600160a01b0316826001600160a01b0316847f2f8788117e7eff1d82e926ec794901d17c78024a50270940304540a733656f0d60405160405180910390a4506001610789565b506000610789565b6000306001600160a01b037f0000000000000000000000000000000000000000000000000000000000000000161480156114a057507f000000000000000000000000000000000000000000000000000000000000000046145b156114ca57507f000000000000000000000000000000000000000000000000000000000000000090565b610892604080517f8b73c3c69bb8fe3d512ecc4cf759cc79239f7b179b0ffacaa9a75d522b39400f60208201527f0000000000000000000000000000000000000000000000000000000000000000918101919091527f000000000000000000000000000000000000000000000000000000000000000060608201524660808201523060a082015260009060c00160405160208183030381529060405280519060200120905090565b600061157e8383610c50565b1561143f576000838152600e602090815260408083206001600160a01b0386168085529252808320805460ff1916905551339286917ff6391f5c32d9c69d2a47ea670b442974b53935d1edc7fd64eb21e047a839171b9190a4506001610789565b600065ffffffffffff821115611612576040516306dfcc6560e41b81526030600482015260248101839052604401610911565b5090565b81546000908181600581111561167557600061163184611c0c565b61163b9085612a80565b60008881526020902090915081015465ffffffffffff908116908716101561166557809150611673565b611670816001612a93565b92505b505b600061168387878585611cf4565b905080156116be576116a88761169a600184612a80565b600091825260209091200190565b54600160301b90046001600160d01b03166116c1565b60005b979650505050505050565b60055460ff166109e057604051638dfc202b60e01b815260040160405180910390fd5b6116f76116cc565b6005805460ff191690557f5db9ee0a495bf2e6ff9c91a7834c1ba4fdd244a5e8aa4e537bd38aeae4b073aa335b6040516001600160a01b03909116815260200160405180910390a1565b6000610892436115df565b6001600160a01b038281166000818152600b602052604080822080548686166001600160a01b0319821681179092559151919094169392849290917f3134e8a2e6d97e929a7e54011ea5485d7d196dd5f0ba4d4ef95803e8e3fc257f9190a46108ca81836117b986611d56565b611d74565b6001600160a01b0381166000908152600c602052604081205461078990611ee0565b6007546001600160a01b031633146109e05760405163118cdaa760e01b8152336004820152602401610911565b600780546001600160a01b038381166001600160a01b0319831681179093556040519116919082907f8be0079c531659141344cd1fd0a4f28419497f9722a3daafe3b4186f6b6457e090600090a35050565b6001600160a01b0381166000908152600a6020526040812054610789565b60055460ff16156109e05760405163d93c066560e01b815260040160405180910390fd5b6118a961187d565b6005805460ff191660011790557f62e78cea01bee320cd4e420270b5ea74000d11b0c9f74754ebdbfc544b05a2586117243390565b60606108927f00000000000000000000000000000000000000000000000000000000000000006008611f11565b60606108927f00000000000000000000000000000000000000000000000000000000000000006009611f11565b80546000908015611968576119528361169a600184612a80565b54600160301b90046001600160d01b031661125c565b60009392505050565b60026006540361199457604051633ee5aeb560e01b815260040160405180910390fd5b6002600655565b6001600160a01b0382166119c557604051634b637e8f60e11b815260006004820152602401610911565b610a7f82600083611bc0565b60006107896119de611447565b8360405161190160f01b8152600281019290925260228201526042902090565b600080600080611a1088888888611fbc565b925092509250611a20828261208b565b50909695505050505050565b6001600160a01b0382166000908152600a602052604090208054600181019091558181146108ca576040516301d4b62360e61b81526001600160a01b038416600482015260248101829052604401610911565b6001600160a01b038216611aa95760405163ec442f0560e01b815260006004820152602401610911565b610a7f60008383611bc0565b60408051808201909152600080825260208201526001600160a01b0383166000908152600c6020526040902061125c9083612144565b6001600160a01b038416611b155760405163e602df0560e01b815260006004820152602401610911565b6001600160a01b038316611b3f57604051634a1406b160e11b815260006004820152602401610911565b6001600160a01b038085166000908152600160209081526040808320938716835292905220829055801561088257826001600160a01b0316846001600160a01b03167f8c5be1e5ebec7d5bd14f71427d1e84f3dd0314c0f7b2291e5b200ac8c7c3b92584604051611bb291815260200190565b60405180910390a350505050565b611bc861187d565b6108ca8383836121b4565b611bdd8282610c50565b610a7f5760405163e2517d3f60e01b81526001600160a01b038216600482015260248101839052604401610911565b600081600003611c1e57506000919050565b60006001611c2b8461221b565b901c6001901b90506001818481611c4457611c44612aa6565b048201901c90506001818481611c5c57611c5c612aa6565b048201901c90506001818481611c7457611c74612aa6565b048201901c90506001818481611c8c57611c8c612aa6565b048201901c90506001818481611ca457611ca4612aa6565b048201901c90506001818481611cbc57611cbc612aa6565b048201901c90506001818481611cd457611cd4612aa6565b048201901c905061125c81828581611cee57611cee612aa6565b046122af565b60005b81831015611d4e576000611d0b84846122c5565b60008781526020902090915065ffffffffffff86169082015465ffffffffffff161115611d3a57809250611d48565b611d45816001612a93565b93505b50611cf7565b509392505050565b6001600160a01b038116600090815260208190526040812054610789565b816001600160a01b0316836001600160a01b031614158015611d965750600081115b156108ca576001600160a01b03831615611e3e576001600160a01b0383166000908152600c602052604081208190611dd9906122e0611dd4866122ec565b612320565b6001600160d01b031691506001600160d01b03169150846001600160a01b03167fdec2bacdd2f05b59de34da9b523dff8be42e5e38e818c82fdb0bae774387a7248383604051611e33929190918252602082015260400190565b60405180910390a250505b6001600160a01b038216156108ca576001600160a01b0382166000908152600c602052604081208190611e7790612359611dd4866122ec565b6001600160d01b031691506001600160d01b03169150836001600160a01b03167fdec2bacdd2f05b59de34da9b523dff8be42e5e38e818c82fdb0bae774387a7248383604051611ed1929190918252602082015260400190565b60405180910390a25050505050565b600063ffffffff821115611612576040516306dfcc6560e41b81526020600482015260248101839052604401610911565b606060ff8314611f2b57611f2483612365565b9050610789565b818054611f3790612a30565b80601f0160208091040260200160405190810160405280929190818152602001828054611f6390612a30565b8015611fb05780601f10611f8557610100808354040283529160200191611fb0565b820191906000526020600020905b815481529060010190602001808311611f9357829003601f168201915b50505050509050610789565b600080807f7fffffffffffffffffffffffffffffff5d576e7357a4501ddfe92f46681b20a0841115611ff75750600091506003905082612081565b604080516000808252602082018084528a905260ff891692820192909252606081018790526080810186905260019060a0016020604051602081039080840390855afa15801561204b573d6000803e3d6000fd5b5050604051601f1901519150506001600160a01b03811661207757506000925060019150829050612081565b9250600091508190505b9450945094915050565b600082600381111561209f5761209f612abc565b036120a8575050565b60018260038111156120bc576120bc612abc565b036120da5760405163f645eedf60e01b815260040160405180910390fd5b60028260038111156120ee576120ee612abc565b0361210f5760405163fce698f760e01b815260048101829052602401610911565b600382600381111561212357612123612abc565b03610a7f576040516335e2f38360e21b815260048101829052602401610911565b6040805180820190915260008082526020820152826000018263ffffffff168154811061217357612173612ad2565b60009182526020918290206040805180820190915291015465ffffffffffff81168252600160301b90046001600160d01b0316918101919091529392505050565b6121bf8383836123a4565b6001600160a01b0383166122105760006121d860025490565b90506001600160d01b038082111561220d57604051630e58ae9360e11b81526004810183905260248101829052604401610911565b50505b6108ca8383836124ce565b600080608083901c1561223057608092831c92015b604083901c1561224257604092831c92015b602083901c1561225457602092831c92015b601083901c1561226657601092831c92015b600883901c1561227857600892831c92015b600483901c1561228a57600492831c92015b600283901c1561229c57600292831c92015b600183901c156107895760010192915050565b60008183106122be578161125c565b5090919050565b60006122d46002848418612ae8565b61125c90848416612a93565b600061125c8284612b0a565b60006001600160d01b03821115611612576040516306dfcc6560e41b815260d0600482015260248101839052604401610911565b60008061234c61232e610c7b565b61234461233a88611938565b868863ffffffff16565b879190612544565b915091505b935093915050565b600061125c8284612b29565b6060600061237283612552565b604080516020808252818301909252919250600091906020820181803683375050509182525060208101929092525090565b6001600160a01b0383166123cf5780600260008282546123c49190612a93565b909155506124419050565b6001600160a01b038316600090815260208190526040902054818110156124225760405163391434e360e21b81526001600160a01b03851660048201526024810182905260448101839052606401610911565b6001600160a01b03841660009081526020819052604090209082900390555b6001600160a01b03821661245d5760028054829003905561247c565b6001600160a01b03821660009081526020819052604090208054820190555b816001600160a01b0316836001600160a01b03167fddf252ad1be2c89b69c2b068fc378daa952ba7f163c4a11628f55a4df523b3ef836040516124c191815260200190565b60405180910390a3505050565b6001600160a01b0383166124f0576124ed600d612359611dd4846122ec565b50505b6001600160a01b0382166125125761250f600d6122e0611dd4846122ec565b50505b6001600160a01b038381166000908152600b60205260408082205485841683529120546108ca92918216911683611d74565b60008061234c85858561257a565b600060ff8216601f81111561078957604051632cd44ac360e21b815260040160405180910390fd5b8254600090819080156126995760006125988761169a600185612a80565b60408051808201909152905465ffffffffffff808216808452600160301b9092046001600160d01b0316602084015291925090871610156125ec57604051632520601d60e01b815260040160405180910390fd5b805165ffffffffffff808816911603612638578461260f8861169a600186612a80565b80546001600160d01b0392909216600160301b0265ffffffffffff909216919091179055612689565b6040805180820190915265ffffffffffff80881682526001600160d01b0380881660208085019182528b54600181018d5560008d81529190912094519151909216600160301b029216919091179101555b6020015192508391506123519050565b50506040805180820190915265ffffffffffff80851682526001600160d01b0380851660208085019182528854600181018a5560008a815291822095519251909316600160301b029190931617920191909155905081612351565b60006020828403121561270657600080fd5b81356001600160e01b03198116811461125c57600080fd5b6000815180845260005b8181101561274457602081850181015186830182015201612728565b506000602082860101526020601f19601f83011685010191505092915050565b60208152600061125c602083018461271e565b80356001600160a01b038116811461278e57600080fd5b919050565b600080604083850312156127a657600080fd5b6127af83612777565b946020939093013593505050565b6000806000606084860312156127d257600080fd5b6127db84612777565b92506127e960208501612777565b929592945050506040919091013590565b60006020828403121561280c57600080fd5b5035919050565b6000806040838503121561282657600080fd5b8235915061283660208401612777565b90509250929050565b60006020828403121561285157600080fd5b61125c82612777565b60ff60f81b8816815260e06020820152600061287960e083018961271e565b828103604084015261288b818961271e565b606084018890526001600160a01b038716608085015260a0840186905283810360c08501528451808252602080870193509091019060005b818110156128e15783518352602093840193909201916001016128c3565b50909b9a5050505050505050505050565b803560ff8116811461278e57600080fd5b60008060008060008060c0878903121561291c57600080fd5b61292587612777565b95506020870135945060408701359350612941606088016128f2565b9598949750929560808101359460a0909101359350915050565b600080600080600080600060e0888a03121561297657600080fd5b61297f88612777565b965061298d60208901612777565b955060408801359450606088013593506129a9608089016128f2565b9699959850939692959460a0840135945060c09093013592915050565b600080604083850312156129d957600080fd5b6129e283612777565b915061283660208401612777565b60008060408385031215612a0357600080fd5b612a0c83612777565b9150602083013563ffffffff81168114612a2557600080fd5b809150509250929050565b600181811c90821680612a4457607f821691505b602082108103612a6457634e487b7160e01b600052602260045260246000fd5b50919050565b634e487b7160e01b600052601160045260246000fd5b8181038181111561078957610789612a6a565b8082018082111561078957610789612a6a565b634e487b7160e01b600052601260045260246000fd5b634e487b7160e01b600052602160045260246000fd5b634e487b7160e01b600052603260045260246000fd5b600082612b0557634e487b7160e01b600052601260045260246000fd5b500490565b6001600160d01b03828116828216039081111561078957610789612a6a565b6001600160d01b03818116838216019081111561078957610789612a6a56fe262c70cb68844873654dc54487b634cb00850c1e13c785cd0d96a2b89b829472b0aafe805b29ea5e57cdf96e1f39c2ff0e6edd978cc45f739c43f08208c90d6ea264697066735822122016a3397d68face1d5f539a09aee2adc9a8faf5eecfb63dd34cd425388fbc7f8064736f6c634300081b0033a26469706673582212208ea389edb81e1c98474845daebaf11728ad990888225a2ec4d81d7e0546bb77664736f6c634300081b0033",
  "linkReferences": {},
  "deployedLinkReferences": {}
}